:020000040800F2
:100000000050002075860008E1680008E5680008D7
:10001000E9680008ED680008F168000800000000C9
:10002000000000000000000000000000F56800086B
:10003000F968000800000000FD6800080169000878
:10004000BD860008BD860008BD860008BD86000884
:10005000BD860008BD860008BD860008BD86000874
:10006000BD860008BD860008BD860008BD86000864
:10007000BD860008BD860008BD860008BD86000854
:1000800011690008BD860008BD860008BD8600080D
:10009000BD860008BD860008BD860008BD86000834
:1000A000BD860008BD860008BD860008BD86000824
:1000B000BD860008BD860008BD860008BD86000814
:1000C000BD860008BD860008BD860008BD86000804
:1000D000BD860008BD860008BD860008BD860008F4
:1000E000BD860008BD860008BD860008000000002F
:1000F0000000000000000000000000000000000000
:0C01000000000000000000005FF808F1A3
:1001100010B5054C237833B9044B13B10448AFF341
:1001200000800123237010BD48040020000000005F
:10013000E09900080C4B43B10C4810B50C49AFF3E3
:1001400000800C48036823B910BD0A48036833B91E
:100150007047094B002BF7D0BDE810401847064BFD
:10016000002BF5D0184700BF00000000E099000800
:100170004C0400204404002000000000154B002B1C
:1001800008BF134B9D46A3F5803A00218B460F46CE
:100190001348144A121A08F04BF80F4B002B00D0EA
:1001A00098470E4B002B00D09847002000210400F8
:1001B0000D000D48002802D00C4808F005F908F0A1
:1001C0000FF82000290008F095F907F0F9FF00BFAB
:1001D0000000080000000000000000000000000017
:1001E000480400202C120020C9830008D583000891
:1001F000704700BF704700BF10B54FF0FF320024BA
:10020000044BDA601C61DA60DC60FFF7F3FF204624
:1002100010BD00BF0010024010B50446074A084B4D
:100220001068A3FB0030800901F0C6FD21460022C2
:100230004FF0FF3001F05EFD002010BD04000020F3
:10024000D34D6210074A08B51368032043F010032A
:10025000136001F03DFD0020FFF7DEFF06F0A0FA7D
:10026000002008BD00200240024A136801331360D9
:10027000704700BFE8100020014B1868704700BFAE
:10028000E810002030B583B00190FFF7F5FF054678
:10029000019C631C18BF0134FFF7EEFF401BA04216
:1002A000FAD303B030BD00BF024A136823F0020343
:1002B0001360704710E000E0024A136843F0020345
:1002C0001360704710E000E0004870470001010132
:1002D000014B1868000C7047002004E0024B1868BE
:1002E000C0F30B00704700BF002004E0024A5368CF
:1002F00043F0010353607047002004E0024A536852
:1003000023F0010353607047002004E0024A536861
:1003100043F0020353607047002004E0024A536830
:1003200023F0020353607047002004E0024A536840
:1003300043F0040353607047002004E0024A53680E
:1003400023F0040353607047002004E0044B054A87
:10035000196808330160126842601B688360704747
:10036000E8F7FF1FECF7FF1FE0B1D9B1027C0346AD
:10037000012A15D0022270B401250F4C4274E26AA2
:10038000057412F4C0720FD103C9266B014326F025
:1003900003063143216310465D741A7470BC7047C4
:1003A000022070470120704704210022284670BCBB
:1003B00059741A74704700BF006C004000B3F9B163
:1003C000027C0346012A19D0022270B40125114C87
:1003D0004274E26A057412F4C07213D103C9266B29
:1003E000014326F0030631432163616B104641F05F
:1003F000040161635D741A7470BC70470220704719
:100400000120704704210022284670BC59741A74D8
:10041000704700BF006C0040F8B1037C0246012B1E
:1004200019D0022130B4012500240D4B4174196B01
:10043000204621F001011963596B21F00401596331
:10044000596B41F003015963596B29435963557442
:10045000147430BC7047022070470120704700BF01
:10046000006C0040704700BF38B50A4C0546636B0E
:100470005A0702D5636BDB0502D401236B7438BDC8
:10048000FFF7F0FF636B43F00303636301236B74B7
:1004900038BD00BF006C0040F8B506460D46FFF7BA
:1004A000EBFEC6B107460D4C01E06A1C0AD1636B36
:1004B000DB05FAD50122636B002043F0030363637D
:1004C0007274F8BD25B1FFF7D7FEC01B8542EED28E
:1004D00003207074F8BD0120F8BD00BF006C00401F
:1004E00098B1027C0346012A0DD0022230B40125C6
:1004F000002104684274226808462A4322605D7421
:10050000197430BC7047022070470120704700BF4B
:10051000A0B1027C0346012A0ED0022230B4002191
:100520000125046842742268084622F00102226014
:100530005D74197430BC7047022070470120704709
:10054000704700BF704700BF02681168CB0710D525
:100550005168C9070DD5536810B55B07044609D427
:10056000FFF7EEFF012262746FF0010223685A6008
:1005700010BD7047FFF7E6FF04226FF00401236807
:10058000596062746FF001025A6010BD890001F178
:10059000804101F5D84192B20A607047890001F1AB
:1005A000804101F5D841086880B27047A8B1017C4C
:1005B000024601290FD0022170B400240126084D03
:1005C0004174E96A204621F07F010B43EB625674C7
:1005D000147470BC7047022070470120704700BF40
:1005E000006C00402DE9F04782460468C16822692A
:1005F000836822F440520A432261E2680069DAF813
:10060000141022F4B052034322F00C020B431343A4
:10061000E3606369DAF81810514A23F440730B431E
:100620009442636159D001F0B9FADAF8043000EB72
:10063000800000EB80009B00B0FBF3F3494F4FF0CC
:100640006408A7FB03235B091D0101F0A7FADAF890
:10065000042000EB8000930000EB8000B0FBF3F679
:1006600001F09CFADAF8042000EB8000930000EB24
:100670008000B0FBF3F3A7FB03235B0908FB1363C4
:100680001B013233A7FB03235B0903F0F00601F0E3
:1006900085FADAF8042000EB800000EB800093007C
:1006A000B0FBF3F901F07AFADAF8043000EB8000DD
:1006B00000EB80009B00B0FBF3F3A7FB03235B0977
:1006C00008FB13931B013233A7FB0323C3F343132C
:1006D00033432B44A360BDE8F08701F06FFADAF8EA
:1006E000043000EB800000EB80009B00B0FBF3F3D4
:1006F0001C4F4FF06408A7FB03235B091D0101F0A9
:100700005DFADAF8042000EB8000930000EB800033
:10071000B0FBF3F601F052FADAF8042000EB8000A7
:10072000930000EB8000B0FBF3F3A7FB03235B090E
:1007300008FB13631B013233A7FB03235B0903F0A0
:10074000F00601F03BFADAF8042000EB8000930099
:1007500000EB8000B0FBF3F901F030FAA4E700BF32
:10076000003801401F85EB512DE9F04107460E4648
:1007700090461D463C6801E06B1C06D1206836EAB5
:100780000003F9D10020BDE8F08135B1FFF774FD19
:10079000A0EB08008542EDD23C6820220021E368EE
:1007A000032023F4D073E360636923F001036361E2
:1007B00087F8392087F8381087F83A20BDE8F081AB
:1007C000704700BF60B338B590F83930044603F085
:1007D000FF0203B32423226884F83930D36820460B
:1007E00023F40053D360FFF7FDFE0025202123688A
:1007F00028461A6922F490421A615A6922F02A02A4
:100800005A61DA6842F40052DA60E56384F839101C
:1008100084F83A1038BD80F83820FFF7D1FFD9E7C7
:100820000120704780B338B590F83930044603F0A2
:10083000FF0223B32423226884F83930D36820468A
:1008400023F40053D360FFF7CDFE00252021236859
:1008500028461A6922F490421A615A6922F022024B
:100860005A615A6942F008025A61DA6842F4005249
:10087000DA60E56384F8391084F83A1038BD80F8FE
:100880003820FFF79DFFD5E701207047002836D0BC
:10089000F8B590F8393004460D4603F0FF024BB32B
:1008A000242300272026226884F83930D368204684
:1008B00023F40053D360FFF795FE236838461A6986
:1008C00022F400621A615A6922F02A025A611A69F6
:1008D00042F480421A611A6922F020022A431A6106
:1008E000DA6842F40052DA60E76384F8396084F829
:1008F0003A60F8BD80F83820FFF762FFD0E70120AA
:10090000704700BF00283BD0F8B590F83930164644
:1009100004460F4603F0FF026BB32423226884F8D9
:100920003930D368204623F40053D360FFF75AFED2
:100930004FF0000C4FF0200E236860461A6922F435
:1009400090421A615A6922F02A025A611D6925F003
:100950000F053D431D61D96821F400613143D96021
:10096000DA6842F40052DA60C4F83CC084F839E036
:1009700084F83AE0F8BD80F83820FFF721FFCCE793
:1009800001207047704700BF80B1242310B580F864
:1009900039300446FFF7F6FF0023E36384F838306C
:1009A00084F83930184684F83A3010BD0120704779
:1009B000F0B5044690F8390083B0202802D0022018
:1009C00003B0F0BD0D46002939D0002A37D01E46AD
:1009D00094F83830012BF2D0002001212123E0636C
:1009E00084F8381084F839300192FFF745FC074647
:1009F000019AA284E284E38C9BB2BBB1E38CA2682F
:100A0000013B9BB2B2F5805FE3843A4633464FF038
:100A10008001204615D0FFF7A7FE70B923682A7819
:100A200001355A60E38C9BB2002BE7D133463A463E
:100A300040212046FFF798FE90B10320C0E7012037
:100A4000BEE7FFF791FE0028F7D12B8821682269C5
:100A5000C3F308034B600AB90235CCE70135CAE796
:100A6000202384F8380084F83930A9E7F0B504462B
:100A700090F83A0083B0202802D0022003B0F0BDE5
:100A80000D46002939D0002A37D01E4694F8383058
:100A9000012BF2D0002001212223E06384F83810DA
:100AA00084F83A300192FFF7E7FB0746019AA285E6
:100AB000E285E08D80B2D0B1E38DA268013B9BB2AC
:100AC000B2F5805FE3853A4633464FF02001204679
:100AD0001DD0FFF749FE60BB236983B92368013548
:100AE0005B6805F8013CE08D80B20028E4D120234A
:100AF00084F8380084F83A30C0E70120BEE7236864
:100B000001355B6803F07F0305F8013CD1E7FFF78F
:100B10002BFE70B9236933B923685B68C3F30803FC
:100B200025F8023BC5E723685B68DBB225F8013B8B
:100B3000BFE70320A2E700BF90F83930202B01D097
:100B400002207047B9B1B2B190F83830012BF7D01C
:100B500030B4002321240568C284C36380F839407F
:100B6000EC68016244F08004828480F838301846D2
:100B7000EC6030BC70470120704700BF90F83A30FD
:100B8000202B01D002207047F9B1F2B190F8383033
:100B9000012BF7D030B4002322250468C285C3633B
:100BA00080F83A50E568828545F4807580F83830E1
:100BB0008162E5606269184642F001026261E368A1
:100BC00043F02003E36030BC70470120704700BF52
:100BD000F8B590F83940202C01D00220F8BD51B36F
:100BE0004AB390F83840012CF7D00446002613464B
:100BF0004FF0210E0127006BE284104AA384E663C4
:100C000084F83870216284F839E00D4F0D4D82620E
:100C100022684663C7620563043203F071F96FF01E
:100C20004002236830461A605A6984F8386042F0FE
:100C300080025A61F8BD0120F8BD00BF0D0F000809
:100C40003D0F000821100008F0B590F83A4083B03D
:100C5000202C02D0022003B0F0BD002935D0002A9C
:100C600033D090F83830012BF4D0044600251346D9
:100C700001270A462226406B1549A262A385E56337
:100C800084F8387084F83A60124F8162124E2168FD
:100C90004563C7620663043103F032F923680195A6
:100CA0001A68284601925A6884F838500192019ACD
:100CB000DA6842F48072DA605A6942F001025A61DD
:100CC0005A6942F040025A61C5E70120C3E700BFFC
:100CD0004D0F0008111000082110000890F838305E
:100CE000012B12D00122036880F83820596990F84E
:100CF0003920212A1AD0596990F83A20222A06D0A0
:100D0000002380F8383018467047022070474A06A2
:100D1000F6D5DA6822F48072DA605A6922F00102AC
:100D20005A615A6922F040025A61E9E70906E2D5A0
:100D30005A6922F080025A61DDE700BF90F838302E
:100D4000012B0FD0012290F8393080F83820212B68
:100D500025D090F83A30222B06D0002380F8383086
:100D600018467047022070470022036882B0019243
:100D70001A6801925A680192019ADA6842F4807204
:100D8000DA605A6942F001025A615A6942F040023F
:100D90005A61002380F83830184602B07047026864
:100DA000536943F08003536190F83A30222BD4D139
:100DB000DAE700BF036810B5596990F83920044696
:100DC000212A1ED0596994F83A20222A01D0002005
:100DD00010BD4A06FBD55A69606B22F040025A6189
:100DE00010B103F0D1F823682021DA68002022F442
:100DF0009072DA605A6922F001025A6184F83A105E
:100E000010BD0906DED55A69006B22F080025A61D6
:100E100010B103F0B9F823682021DA6822F0C0028B
:100E2000DA6084F83910CDE7036810B5DA68044653
:100E300022F4F072DA605A6922F001025A615A69AA
:100E400011060BD55A69016B22F080025A6129B153
:100E5000002308464B6303F097F823685A6952064B
:100E60000AD55A69616B22F040025A6121B1002310
:100E700008464B6303F088F800232022E3841846D9
:100E8000E385E36384F83A2084F8392010BD00BF7D
:100E9000036810B5DA68044622F0C002DA605A69C5
:100EA00012060AD55A69016B22F080025A6121B1FB
:100EB000002308464B6303F067F800202023E084FA
:100EC00084F8393010BD00BF036810B5DA680446F5
:100ED00022F49072DA605A6922F001025A615A696A
:100EE00052060AD55A69416B22F040025A6121B17B
:100EF000002308464B6303F047F800202023E085D9
:100F000084F83A3010BD00BF704700BF08B50368D1
:100F1000406A1B6813F020030AD10268C384536936
:100F200023F080035361D36843F04003D36008BDCE
:100F3000FFF7EAFF08BD00BF704700BF08B5406A71
:100F4000FFF7FAFF08BD00BF704700BF08B5036890
:100F5000406A1B6813F0200310D120210268C3856A
:100F6000D36823F48073D360536923F00103536182
:100F7000536923F04003536180F83A10FFF7E4FF10
:100F800008BD00BF8368B3F5805F2CD0036973B1DF
:100F90000368826A5B68511C03F07F0381621370EF
:100FA000C38D013B9BB2C38543B1002070470268EB
:100FB000836A5268591C81621A70F1E710B52024C7
:100FC0000268D16821F02001D160D16821F48071DC
:100FD000D160516921F00101516180F83A40FFF779
:100FE000B3FF002010BD0269836A3AB902685268F3
:100FF000C2F3080223F8022B8362D1E70268526829
:10100000D2B223F8012B8362CAE700BF704700BF4A
:1010100008B5406AFFF7FAFF08BD00BF704700BF80
:1010200008B5436A1A68506993F8391021291CD011
:10103000506993F83A10222907D0DA6B184642F02B
:101040001002DA63FFF7EAFF08BD4106F5D500217B
:101050002020D985D16821F49071D160516921F0A7
:101060000101516183F83A00E7E70006E0D500216D
:101070002020D984D16821F0C001D16083F83900E3
:10108000D6E700BF036870B51A6804461607DD6826
:1010900059694AD011F0010152D0D60705D5E805AB
:1010A00003D5E06B40F00100E06356077AD50029D4
:1010B00000F08480E16B900741F00201E16376D596
:1010C000E16B41F00401E163110772D4E16B002987
:1010D0002AD0910605D5AA0603D594F83A20222AEB
:1010E0007CD05D69E16B0E0702D415F040057AD023
:1010F0002021DA6822F49072DA605A6922F0010243
:101100005A6184F83A105A6955065ED55A69616B7E
:1011100022F040025A61002957D03B4B08464B63EE
:1011200002F04CFF002854D170BD96060BD5A906DD
:1011300009D590F83A30222BF6D1BDE8704021E76E
:1011400015F4907FA9D110060ED45606ECD56D0685
:10115000EAD52021DA68204622F04002DA6084F8DD
:101160003910FFF7D1FE70BD2906EED594F839206D
:10117000212AD9D1A268B2F5805F226A38D0511CE9
:10118000216212785A60E28C013A92B2E284002A1B
:10119000CAD1DA6822F08002DA60DA6842F04002EE
:1011A000DA6070BD96070BD5002989D18EE711074B
:1011B0008CD5E16B41F00801E16387E7900785D4A6
:1011C000100783D5002981D0F3E72046FFF726FFDB
:1011D00070BD606BBDE87040436B18472046FFF759
:1011E000D1FE23687DE72046FFF718FFE56370BD59
:1011F00011882069C1F30801596010B902322262D6
:10120000C1E701322262BEE70D120008002208B5D4
:10121000436ADA851846DA84FFF700FF08BD00BF8D
:10122000704700BF036810B5DA68044622F4F07214
:10123000006BDA605A6922F001025A6128B15A69DA
:1012400012F0800218BF214A4263616B29B15A69CA
:1012500012F0400218BF1E4A4A635A6912060BD5A3
:101260005A6922F080025A6130B102F0A7FE00B341
:101270000021226B236851635A6951060BD55A69C4
:10128000606B22F040025A6128B102F097FE70B103
:101290000022636B5A6300232022E3842046E38507
:1012A000E36384F8392084F83A20FFF7B9FF00207F
:1012B00010BD23685A695206F9D55A69606B22F04D
:1012C00040025A610028E0D1F1E700BF0513000891
:1012D000D512000810B50024436A596B1A6B4C6391
:1012E00012B1526B02B110BD00222021DA841846DF
:1012F000DA85DA6383F8391083F83A10FFF790FF44
:1013000010BD00BF10B50024436A196B5A6B4C63C3
:1013100012B1526B02B110BD00222021DA841846AE
:10132000DA85DA6383F8391083F83A10FFF778FF2B
:1013300010BD00BF704700BF036810B5DA680446EF
:1013400022F0C002DA605A6912F080020DD05A69A8
:10135000016B22F080025A61A1B10E4B08464B632B
:1013600002F02CFE48B9002010BD2023C28480F872
:101370003930FFF7DFFF002010BD206B436B98472B
:10138000002010BD2023C18480F83930FFF7D2FF40
:10139000E9E700BF991300080021202208B5436A3D
:1013A000D984184683F83920FFF7C4FF08BD00BF71
:1013B000704700BF036810B5DA68044622F49072E3
:1013C000DA605A6922F001025A615A6912F0400249
:1013D0000DD05A69416B22F040025A61A1B10E4B07
:1013E00008464B6302F0EAFD48B9002010BD2023F7
:1013F000C28580F83A30FFF7DBFF002010BD606B3C
:10140000436B9847002010BD2023C18580F83A30F7
:10141000FFF7CEFFE9E700BF1D14000800212022DE
:1014200008B5436AD985184683F83A20FFF7C0FF0C
:1014300008BD00BF90F83820012A12D0242230B411
:10144000034620250021046880F83920E268084618
:1014500042F00102E26083F8395083F8381030BC62
:1014600070470220704700BF90F83820012A12D040
:10147000242230B4034620250021046880F8392056
:10148000E268084642F00202E26083F8395083F8CD
:10149000381030BC70470220704700BF90F83820E9
:1014A000012A12D0242230B40346202500210468EA
:1014B00080F83920E268084622F00202E26083F8F0
:1014C000395083F8381030BC70470220704700BF95
:1014D00090F83820012A14D0242230B40346202565
:1014E0000021046880F83920E268084622F00C02E6
:1014F00042F00802E26083F8395083F8381030BCBB
:1015000070470220704700BF90F83820012A14D09D
:10151000242230B4034620250021046880F83920B5
:10152000E268084622F00C0242F00402E26083F80E
:10153000395083F8381030BC70470220704700BF24
:1015400090F8392090F83A0010437047C06B70470C
:1015500000210E4B10B45A680D4C22F003025A6061
:101560001A680C4822F0847222F480321A601A68D9
:1015700022F480221A6059601A6822F0F80242F0C0
:1015800080021A609960046010BC7047001002402D
:1015900000127A00040000202DE9F041036882B0B7
:1015A000DD07044630D5AD494A6802F00C02042A32
:1015B00000F0FA804A6802F00C02082A00F0F0807D
:1015C0006368B3F5803F00F07481002B00F0048164
:1015D000B3F5A02F00F0A981A04B1A6822F4803245
:1015E0001A601A6822F480221A60FEF745FE9B4DAD
:1015F000064605E0FEF740FE801B642800F21781D6
:101600002B689A03F6D523689F0728D5934A51681B
:1016100011F00C0F00F0A980516801F00C010829AD
:1016200000F09F802369002B00F0328101228C4B57
:101630008A4D1A60FEF720FE064605E0FEF71CFE06
:10164000801B022800F2F3802B689807F6D52B68E0
:10165000626923F0F80343EAC2032B6023681A0788
:101660005DD45D073AD57D4BDA69D00000F1A680E4
:101670000125DA6942F08052DA61DB6903F08053B8
:101680000093009B774B1A68D10540F1BF80E36857
:10169000012B00F01481002B00F0CD80052B6F4B47
:1016A0001A6A00F04F8122F001021A621A6A22F0CF
:1016B00004021A62FEF7E0FD684E804641F2883768
:1016C00006E0FEF7D9FDA0EB0800B84200F2AF80BB
:1016D000336A9B07F5D5002D40F0F780E369D3B15D
:1016E0005E4D6A6802F00C02082A45D0022B4FF0CA
:1016F00000025D4B00F0EF801A60FEF7BDFD2C4646
:10170000054605E0FEF7B8FD401B022800F28F8079
:1017100023689B01F6D4002002B0BDE8F081A369E4
:10172000002B2DD00122514B4C4D1A60FEF7A4FD29
:10173000064604E0FEF7A0FD801B022877D86B6AFE
:101740009B07F7D54A4B4B4A1B68A2FB03235B0A56
:10175000019300BF019B5A1E0192002BF9D123680F
:101760007FE75268D6033FF55DAF3C4A12689507A4
:1017700026D52269012A23D0012002B0BDE8F081DC
:101780003A4A364D1360FEF777FD064604E0FEF751
:1017900073FD801B02284AD86B6A9F07F7D4DEE7E7
:1017A0004A68D0037FF50CAF2C4A126891037FF58D
:1017B0002BAF6268002A7FF427AFDDE7002561E7E1
:1017C000264960690A6822F0F80242EAC0020A600B
:1017D0001A077FF546AFA2E703F1804303F5043310
:1017E0001A681D4622F480321A601A6822F4802298
:1017F0001A60FEF741FD064604E0FEF73DFD801B42
:10180000642814D82B689B03F7D4FCE61A681E469C
:1018100042F480721A60FEF72FFD07463368DA053E
:101820003FF535AFFEF728FDC01B6428F6D903202D
:1018300002B0BDE8F08103F1804303F504331A6A76
:101840001E4622F001021A621A6A41F2883822F01A
:1018500004021A62FEF710FD074612E00010024073
:101860000000424200700040600042428004424258
:1018700004000020D34D6210FEF7FEFCC01B404563
:10188000D5D8336A9807F7D4002D3FF427AF1CE072
:10189000344A354D1360FEF7EFFC064604E0FEF7D0
:1018A000EBFC801B0228C2D82B689907F7D4236869
:1018B000D5E62D4A136843F48033136095E62A4A2F
:1018C000136A43F001031362F4E6274AD36923F055
:1018D0008053D36102E71A60FEF7CEFC064604E0AF
:1018E000FEF7CAFC801B0228A1D82B689901F7D407
:1018F000226AB2F5803F2DD001251B4B606A5968E2
:10190000024321F4741119480A435A6005601C46C9
:10191000FEF7B2FC054604E0FEF7AEFC401B0228D1
:1019200085D823689A01F7D5F5E603F18043A3F53E
:101930003C331A6842F480221A601A6842F48032FA
:101940001A6052E642F004021A621A6A42F0010278
:101950001A62AFE66B68A16823F400330B436B6037
:10196000CAE700BF0000424200100240600042424D
:1019700070B50322002602204FF4807386B00D4C10
:101980000390049605920293A3690D4643F0040365
:10199000A361A36902A903F0040301930648019B14
:1019A00002F05CF8616821F0E0612943616006B0F3
:1019B00070BD00BF00100240000801400122014B31
:1019C0001A6070474C0042420022014B1A60704777
:1019D0004C00424270B50126022586B0154B0DF130
:1019E000180E0FCB0EE90F00134C8DF804608DF824
:1019F0000550636803F00C02082A0BD1C3F383423D
:101A00007244DB0312F8100C07D40C4B03FB00F0FC
:101A100006B070BD0A4806B070BD6368084AC3F3DB
:101A20004043734413F8143CB2FBF3F300FB03F0A0
:101A300006B070BD009A00080010024000093D0089
:101A400000127A004E4A136803F007038B420BD250
:101A5000136823F007030B431360136803F00703B5
:101A6000994201D00120704703682DE9F0419A079F
:101A700006D5444C8568626822F0F0022A43626011
:101A8000DF0706460C4622D542683E4B012A1B68FA
:101A900072D0022A6AD0990729D53A4D41F2883886
:101AA0006B6823F0030313436B60FEF7E5FB736879
:101AB0000746012B49D0022B05D151E0FEF7DCFB94
:101AC000C01B404555D86B6813F00C0FF6D12C4A5B
:101AD000136803F007039C420CD2136823F007033A
:101AE00023431360136803F007039C4202D00120D4
:101AF000BDE8F08133685A0706D52249F0684A6884
:101B000022F4E06202434A601B0707D51D4A31698F
:101B1000536823F4605343EAC1035360FFF75AFF4D
:101B2000184B19495B68194AC3F30313CB5C20FABD
:101B300003F300201360FEF76FFB0020BDE8F08187
:101B4000FEF79AFBC01B404513D86B6803F00C03EB
:101B5000042BF5D1BBE7FEF78FFBC01B404508D82F
:101B60006B6803F00C03082BF5D1B0E7980194D40F
:101B7000BDE70320BDE8F0819D038ED4B7E700BF29
:101B80000020024000100240209A000804000020BB
:101B9000014B1868704700BF04000020044B054942
:101BA0005B68054AC3F30223CB5C1068D8407047DA
:101BB00000100240309A000804000020044B054940
:101BC0005B68054AC3F3C223CB5C1068D8407047FA
:101BD00000100240309A0008040000200F22224B1F
:101BE00002601A6852032FD54FF4A02343601E4AA7
:101BF000536803F40033836013681B4A13F0010336
:101C000018BF012303611368C3F3C4034361136A5C
:101C1000590721D50523C360134B134A5B6A13F0A0
:101C2000010318BF012383610F4B1B68DB014CBF0D
:101C300002230123C361536803F4803303625368B2
:101C400003F47013436270471B6813F4803318BFAA
:101C50004FF480334360CAE7136A13F0010318BFDF
:101C60000123C360D8E700BF001002400F220D4BD4
:101C700002605A6810B402F0030242605A680A4CCB
:101C800002F0F00282605A6802F4E062C2605B68AF
:101C9000DB0803F4E0630361236810BC03F007036F
:101CA0000B6070470010024000200240704700BFE8
:101CB00008B5054B9B681B0604D5FFF7F7FF80228C
:101CC000024B1A7008BD00BF001002400A1002400B
:101CD0004FF6FF01064A0002D36800F4E0600B40B3
:101CE00043F0BF6343F400330343D360704700BF46
:101CF00000ED00E0184B70B4DC68C4F30224C4F1BA
:101D00000706042E04F1040328BF0426062B17D966
:101D10000125033CA540013D2A400123B340013B7E
:101D20001940A140002841EA02010CDB090100F141
:101D30006040C9B200F5614080F8001370BC704784
:101D400000221446E9E7054B00F00F000901C9B273
:101D50000344197670BC704700ED00E0FCEC00E035
:101D6000012300F01F01034A40098B4042F8203054
:101D7000704700BF00E100E001224309044900F080
:101D80001F00203302FA00F041F82300704700BF23
:101D900000E100E0BFF34F8F0549064BCA6802F42B
:101DA000E0621343CB60BFF34F8F00BFFDE700BF7E
:101DB00000ED00E00400FA050138B0F1807F0DD29B
:101DC00030B4F02500220721054B064C586084F8FA
:101DD0002350104630BC9A6019607047012070474C
:101DE00010E000E000ED00E0024BD868C0F30220F4
:101DF000704700BF00ED00E0002870B422DB00F166
:101E0000604000F5614090F80043240901F00701AB
:101E1000C1F10706042E01F1040028BF042606289C
:101E20000DD9012503398D40013D25400120B040E9
:101E3000CC40411E214011601D6070BC70470025E0
:101E40002946F3E7034C00F00F000444247E2409E4
:101E5000DCE700BFFCEC00E001224309044900F08C
:101E60001F00403302FA00F041F82300704700BF22
:101E700000E100E0054A4309403352F8233000F006
:101E80001F0023FA00F000F00100704700E100E0BD
:101E900001224309044900F01F00603302FA00F0F8
:101EA00041F82300704700BF00E100E0054A430904
:101EB000803352F8233000F01F0023FA00F000F0C6
:101EC0000100704700E100E0044A042813680CBFD9
:101ED00043F0040323F004031360704710E000E0B4
:101EE000704700BF08B505F041FA08BD20BF00BF2C
:101EF000704700BF044B1A6942F080521A611A6998
:101F000022F080521A617047001002400122014BFA
:101F10001A60704720000E420022014B1A60704781
:101F200020000E421B4910B40A68046822F0E00247
:101F3000194B22430A605A6822F480325A601A68A8
:101F400022F480321A60DA6822F48032DA609A6809
:101F500022F480329A604268D40303D5196841F4B0
:101F600080311960900304D50B494B6843F48033EA
:101F70004B60D10704D508498B6843F480338B60EC
:101F8000930704D5044AD36843F48033D36010BC6C
:101F9000704700BF00700040000401400122014B67
:101FA0001A60704710000E420022014B1A60704701
:101FB00010000E4290FAA0F0B0FA80F00122024B1D
:101FC00003449B001A6070472080831090FAA0F0B1
:101FD000B0FA80F00022024B03449B001A60704765
:101FE00020808310064A0129136923F0040313613A
:101FF00003D040BF20BF20BF704730BF704700BF35
:1020000000ED00E00F4A10B513680F4C23F00203F7
:1020100013601368012923F0010340EA03001060F4
:10202000236943F0040323610AD040BFFFF75EFF3A
:10203000FFF75CFF044A136923F00403136110BD2A
:1020400030BFF7E70070004000ED00E00549064AA8
:102050000B6843F002030B60136943F00403136140
:1020600030BF70470070004000ED00E0024A136985
:1020700043F002031361704700ED00E0024A136968
:1020800023F002031361704700ED00E0024A136978
:1020900043F010031361704700ED00E0024A13693A
:1020A00023F010031361704700ED00E0704700BF9C
:1020B00010B5054C6369DB0304D5FFF7F7FF4FF458
:1020C0008033636110BD00BF00040140704700BF52
:1020D000002855D0F0B590F83D3089B004460E4642
:1020E00003F0FF02002B46D002230025211D84F8B7
:1020F0003D302068702704F01BF8B3683168206811
:10210000032204F001FA236870689969F66821F0E7
:102110000C0199619A6901A902439A615A681846AB
:1021200042F080025A609A68019722F070029A6029
:102130009A68029642F040029A609A6822F007027A
:102140009A609A6842F004029A6005950695079590
:102150000495039504F010F90121284623685A6874
:1021600022F070025A605A6842F050025A6084F8B5
:102170003D1009B0F0BD80F83C20FFF7A7FFB3E7A2
:1021800001207047704700BF022141F2111203681D
:1021900010B580F83D10196A0446114208D140F28A
:1021A0004442196A114203D11A6822F001021A60EE
:1021B0002046FFF7E7FF002084F83D0084F83C004C
:1021C00010BD00BF10B5044601220068002104F0D4
:1021D000D9FA22680020136843F00103136010BD90
:1021E000002210B504461146006804F0CBFA41F213
:1021F00011122368196A114208D140F24442196A47
:10220000114203D11A6822F001021A60002010BDA9
:1022100010B5044603680122D968184641F002014E
:10222000D960002104F0AEFA22680020136843F060
:102230000103136010BD00BF002210B50446114613
:10224000006804F09FFA41F211112368DA6822F065
:102250000202DA601A6A0A4208D140F24442196A5C
:10226000114203D11A6822F001021A60002010BD49
:10227000F8B590F83D40E4B2022C2AD090F83D40E9
:10228000E4B2012C1FD0044616460D46012200215F
:10229000006804F077FA104F2168606ADFF83CE0CC
:1022A00033462A46C0F828E00763343101F028FE9F
:1022B00023680020DA6842F40072DA601A6842F09B
:1022C00001021A60F8BD01B91AB9022380F83D3045
:1022D000D9E72046F8BD00BFF1600008E95E0008BC
:1022E000002210B504461146006804F04BFA41F292
:1022F00011112368DA6822F40072DA601A6A0A425D
:1023000008D140F24442196A114203D11A6822F0FE
:1023100001021A60002010BD0422036802FA01F1D4
:102320001A6A002022EA01021A621A6A114319622B
:102330005A6C42F400425A641A6842F001021A6070
:10234000704700BFFFF7E8BF0C2937D8DFE801F07E
:10235000303636362A3636362436363607000368A7
:10236000DA6842F01002DA600422D86802FA01F159
:1023700040F08000D8601A6A002022EA01021A6246
:102380001A6A114319625A6C42F400425A641A687C
:1023900042F001021A6070470368DA6842F00802EE
:1023A000DA60E1E70368DA6842F00402DA60DBE74A
:1023B0000368DA6842F00202DA60D5E70368D3E71F
:1023C000FFF7C2BF10B40C2950D8DFE801F0494F25
:1023D0004F4F434F4F4F3D4F4F4F07000368DA6851
:1023E00022F01002DA60042040F244441A6A00FA33
:1023F00001F122EA010119621A6A1A621A6A22427A
:1024000003D1DA6822F08002DA6041F21112196A0F
:10241000114208D140F24442196A114203D15A6C68
:1024200022F400425A6441F21112196A114208D191
:1024300040F24442196A114203D11A6822F00102A3
:102440001A60002010BC70470368DA6822F00802A6
:10245000DA60C8E70368DA6822F00402DA60C2E7EB
:102460000368DA6822F00202DA60BCE70368BAE7C0
:10247000FFF7A8BFF8B590F83D40E4B2022C15D0A4
:1024800090F83D40E4B2012C0CD00D4604460C2DD2
:102490006DD8DFE805F00D6C6C6C596C6C6C336CAE
:1024A0006C6C4600002A64D1002B62D02046F8BD37
:1024B0002668406ADFF8C8E0304F1146C0F828E0CF
:1024C00006F13402076301F01BFD2368DA6842F469
:1024D0000072DA600422186A02FA05F120EA0100AB
:1024E00018621A6A0020114319625A6C42F40042C1
:1024F0005A641A6842F001021A60F8BD2668C06A80
:10250000DFF87CE01D4F1146C0F828E006F13C02E0
:10251000076301F0F5FC2368DA6842F40062DA60D0
:10252000D8E72668006BDFF858E0144F1146C0F872
:1025300028E006F14002076301F0E2FC2368DA6854
:1025400042F48052DA60C5E72668806ADFF830E03E
:102550000A4F1146C0F828E006F13802076301F07F
:10256000CFFC2368DA6842F48062DA60B2E703687D
:10257000B0E7022480F83D4087E700BFF160000823
:10258000395F0008FFF776BF30B404460C294AD8FB
:10259000DFE801F0434949493D494949374949493B
:1025A00007000368DA6822F48052DA60042041F2FE
:1025B00011151A6A00FA01F122EA010119621A6A78
:1025C0001A621A6A2A4208D140F24442196A114238
:1025D00003D15A6C22F400425A6441F21112196A72
:1025E000114208D140F24442196A114203D11A68DB
:1025F00022F001021A600123002084F83D3030BC33
:1026000070470368DA6822F40062DA60CEE7036894
:10261000DA6822F48062DA60C8E70368DA6822F4D4
:102620000072DA60C2E70368C0E700BFFFF7ACBF23
:102630000422036802FA01F11A6A002022EA010268
:102640001A621A6A114319625A6C42F400425A64BF
:10265000704700BF042210B441F21114036802FA5B
:1026600001F11A6A22EA010119621A6A1A621A6AE7
:10267000224204D140F24442196A114210D041F280
:102680001112196A114208D140F24442196A1142EA
:1026900003D11A6822F001021A60002010BC7047B2
:1026A0005A6C22F400425A64E9E700BFFFF7D2BF38
:1026B000FFF7D0BF0422036802FA01F1DA680020B4
:1026C00042F00202DA60DA6842F00402DA601A6A62
:1026D00022EA01021A621A6A114319625A6C42F420
:1026E00000425A64704700BF042210B441F2111432
:1026F000036802FA01F1DA6822F00202DA60DA68AD
:1027000022F00402DA601A6A22EA010119621A6AE6
:102710001A621A6A224204D140F24442196A1142F2
:1027200010D041F21112196A114208D140F244420C
:10273000196A114203D11A6822F001021A600020BE
:1027400010BC70475A6C22F400425A64E9E700BF9B
:1027500090F83C3030B4012B20D0012380F83C307D
:1027600031F03003036811D000252C46596841F040
:1027700001015960596821F00401596059680A4300
:102780005A6080F83C50204630BC70479C6824F06A
:1027900070049C609C6821439960E5E70224204610
:1027A00030BC704790F83C3030B4012B24D001236A
:1027B00080F83C3031F03003036815D000252C46FA
:1027C000596841F001015960596821F004015960CC
:1027D00059680A435A60DA6842F02002DA6080F8E9
:1027E0003C50204630BC70479C6824F070049C60CC
:1027F0009C6821439960E1E70224204630BC704781
:1028000090F83C30012B28D00123F0B480F83C3004
:1028100031F03003036806D19C6824F070049C609A
:102820009C682143996000245968456B41F001017F
:10283000596059680A4F21F0040159605968094EDE
:102840000A435A60DA68AF6242F400522E63DA60DB
:1028500080F83C402046F0BC704702210846704793
:102860000D290008F160000890F83C30012B22D0BF
:10287000024610B40024CB68886823F440730343F5
:10288000486823F480630343086823F40063034328
:10289000086923F480530343486923F40053034336
:1028A000886923F44043116803434B64204682F84F
:1028B0003C4010BC70470220704700BF90F83C308D
:1028C000012B1FD002460220F0B500250126136817
:1028D00082F83D005C68D1F800E024F070045C6090
:1028E00058684F6840EA0E0058609C68284624F0FB
:1028F00080049C6099683943996082F83D6082F851
:102900003C50F0BD02207047704700BF08B501235E
:10291000406A80F83D30FFF7F7FF08BD704700BF01
:1029200090F83D00704700BF124BDB6813F01003B6
:1029300005D010231049CA6942F00202CA610D4A4B
:10294000D268500706D50C4943F00403CA6942F027
:102950000102CA61074AD169C90708D50648C16999
:1029600041F00401C161D16921F00101D161014A45
:10297000D360704700200240F010002070B4144C67
:10298000257E012D1DD00125124E257635690128A1
:1029900045F4A0553561A160C4E9042314D0022890
:1029A0000EBF042505250420257060600020094D18
:1029B000E0612B6992B243F001032B610A8070BC85
:1029C0007047022070BC7047032525706060EDE7FA
:1029D000F010002000200240704700BF704700BF89
:1029E000F8B5464BDA68D10602D4DB685A0722D51F
:1029F0004FF0FF33424CA568A360FFF795FF2846D0
:102A0000FFF7ECFF002323703C4DEB689B0603D5DA
:102A10002023EB60237883B9237803F0FF014BB9BF
:102A2000364B1A6922F007021A611A6922F4A05281
:102A30001A612176F8BD324CE6E72378012B23D0CA
:102A40002378022B4CD06368013B63606368002BE2
:102A50002DD00027A1680231A160A668D4E9040145
:102A6000020C42EA01420B0CC4E904232B6923F057
:102A700001032B61D4E90423E7612B6992B243F08F
:102A800001032B613280C7E76368013B63606368C1
:102A9000F3B1A068FFF7A0FFA06800F58060A06018
:102AA0002B6923F002032B6101F032FFB4E7237896
:102AB000032B1FD02378A068042B0CBF02380638E4
:102AC000FFF78AFF4FF0FF320023A2602370A3E7D5
:102AD0004FF0FF321046A2602370FFF77DFF9BE7A7
:102AE0002B69002023F004032B61FFF775FF0023FF
:102AF000237091E7A068FFF76FFFE3E70020024033
:102B0000F0100020054B1A69120605D50449054A44
:102B1000596000205A607047012070470020024031
:102B200023016745AB89EFCD034A0020136943F0C9
:102B300080031361704700BF00200240054B1869F5
:102B400010F4007004D10449044A99609A607047F7
:102B5000012070470020024023016745AB89EFCD7B
:102B6000034A0020136923F400731361704700BF08
:102B700000200240FFF70EB9014BD869704700BF33
:102B8000F010002070B50546FDF776FB124C0646A6
:102B900001E06A1C12D1E368DB07FAD4E368980607
:102BA00044BF2023E3600C4BDA68D10602D4DA6913
:102BB000D2070BD5FFF7B8FE012070BD25B1FDF798
:102BC0005BFB801B8542E6D2032070BDD86810F005
:102BD0000400EFD170BD00BF002002402DE9F84F86
:102BE000274E347E012C02D10220BDE8F88F1D460D
:102BF000012304464CF2503090460F463376FFF7DF
:102C0000C1FFB0BB012C38D0022C0CBF0220042025
:102C10000024A1460138BB46C0B20237DFF864A0E9
:102C200007EB4007C4F12003C6F81C9005FA03F334
:102C300028FA04F1A4F12002194325FA02F2DAF885
:102C40001030114343F0010389B2CAF810304CF23E
:102C50005030ABF80010FFF795FFDAF810300BF1A9
:102C6000020B23F001031034CAF8103008B9BB4539
:102C7000D8D100233376BDE8F88F2046C8E700BFDF
:102C8000F0100020002002402DE9F04104460068C9
:102C900082B0C30727D53B4BDA69D7003BD53A4B07
:102CA00000251A68D60544D5364A136A13F44073D2
:102CB0000FD0616801F4407083420BD001270026D9
:102CC000136A324923F440700F600E60D907106216
:102CD00046D461682B4A136A23F440730B43136292
:102CE000002D38D1206883070DD410F0100007D0D4
:102CF0000020244AE168536823F480030B435360A7
:102D000002B0BDE8F0811F4AA168536823F4404334
:102D10000B435360E9E7DA69012542F08052DA613A
:102D2000DB6903F080530193019B174B1A68D605AA
:102D3000BAD41A681E4642F480721A60FDF79CFAF3
:102D400007463368D805AFD4FDF796FAC01B642850
:102D5000F7D90320D4E7D36923F08053D361C1E7C7
:102D60001646FDF789FA41F28837804605E0FDF7FF
:102D700083FAA0EB0800B842EBD8336A9A07F6D57D
:102D8000A7E700BF0010024000700040400442422C
:102D90001321074B1A6A02F4407242605A680160BC
:102DA00002F4404282605B6803F48003C3607047B2
:102DB0000010024030B504460225012287B0354B91
:102DC0008DF80550022C06AD8DF804200FCB05E9D7
:102DD0000F0042D0102C1CD0012C02D0002007B0D4
:102DE00030BD40F202322C490B6A1A40B2F5817FA5
:102DF0003FD003F44073B3F5007F42D0B3F5407F7A
:102E0000ECD10B684FF2244013F4003F08BF0020C0
:102E1000E5E7214B5968186810F08070DFD006A8EC
:102E2000C1F38342024412F8100CCA0325D55B6833
:102E300006A9C3F340430B44184A13F8143CB2FBF1
:102E4000F3F300FB03F0144B5B685B02C7D4144B35
:102E50004000A3FB00304008C1E7FEF7AFFE0E4B79
:102E60005B68C3F3813301335B00B0FBF3F007B061
:102E700030BD4FF4004007B030BD0A4B03FB00F0FB
:102E8000E1E74B6A49F6404013F0020F08BF00200B
:102E9000A5E700BF109A00080010024000127A0057
:102EA000ABAAAAAA00093D00022930B400F5FA64D1
:102EB00020D9224B01EB4100C1EBC001A3FB013142
:102EC0001F4D0232A5FB0435131903EB510303EB2D
:102ED000940303EBD5131B48A3EB5513A0FB03206E
:102EE00030BC1A1A00EB52008008C0EBC000181A60
:102EF000C0B27047114B01EB4105C1EBC501A3FB0B
:102F000001310F4D00F2CF70A5FB003504321319CB
:102F100003EB510101EB900101EBD5110948A1EB45
:102F20005511A0FB013030BC0B1A00EB5300800898
:102F3000C0EBC000081AC0B2704700BF398EE3383A
:102F40001F85EB512549922438B50446FDF794F9C5
:102F5000054605E0FDF790F9401BB0F57A7F09D8EA
:102F600023685A689206F5D55A68002042F010028C
:102F70005A6038BD032038BD026838B5536804462E
:102F800023F010035360FDF777F9054605E0FDF7E0
:102F900073F9401BB0F57A7F05D823685B689B0600
:102FA000F5D5002038BD032038BD00BF38B50C462C
:102FB0000546FFF7C9FF08B1012038BD2B68220C78
:102FC000A4B29A612846DC61FFF7D6FF003018BF33
:102FD000012038BD38B50C460546FFF7B5FF08B1EE
:102FE000012038BD2B68220CA4B21A6228465C620C
:102FF000FFF7C2FF003018BF012038BD704700BF87
:10300000704700BFF8B500286DD000296BD0037C55
:10301000012B34D00124022304744374002A31D1DB
:103020004FF461624B780C78C3EB03139B0002FBF7
:1030300004338C7806461C442146FFF7B7FF05464B
:10304000002849D133685A6822F005025A601A6A8A
:10305000596A89B241EA02414B1C0AD08C4208D914
:1030600001F5A83101F5C0713046FFF7B3FF002824
:103070003CD101220023727433742846F8BD022526
:103080002846F8BD4FF461664A780D78130903EBC2
:10309000830402F00F0303EB44032C0904EB8407C1
:1030A000DBB205F00F048A78C3EB031304EB47048B
:1030B000E4B29B0006FB0433140904EB840102F024
:1030C0000F0404EB4104E4B21C4421460646FFF71A
:1030D0006DFF05460028B5D0042200230125727437
:1030E00033742846F8BD01252846F8BD04233574FD
:1030F00073740125C4E700BF002800F0C3800029D5
:1031000000F0C080D0F800C0DCF804305B0700F1AC
:10311000B9802DE9F04FDCF81840DCF81C70DCF8C1
:103120001830A6B29DB2AE4283B000F00081DCF848
:103130001C70BFB247EA03470C464FF46161914BE4
:103140000546A3FB0703DB0A01FB137116468E4AF3
:10315000172BA2FB01024FEA5212C2EB0210A1EBA5
:1031600080016270A17040F28F80884AA2FB031236
:10317000120902EB4202A3EBC2032370DCF8202009
:10318000DCF824309BB243EA0243581C7ED09F42B5
:103190007CD27F4A7F49A2FB07294FEA194901FBEC
:1031A000197928464946A3EB0708FFF7FFFE0028D8
:1031B00078D1B8F1FF3F00F0C08009EB0801284644
:1031C000FFF708FF00286DD1714A6B7BA2FB072E29
:1031D000AF7B5FEA1E4E19463A46E87B1AD00022C2
:1031E0004FF4C87B4FF4B56C012B5FD00A2B62D92A
:1031F0000C2B64D11E2F5BD90132964500F10100E2
:1032000040F2A68002270123511C8E450A46EBD8C6
:10321000D9B2FAB2E8736973AA73FFF745FE28734F
:1032200066B32378092B40F2868000220A3BDBB28A
:10323000092B02F10102F9D81201D1B262780B43D5
:10324000092A237040F2828000230A3AD2B2092A66
:1032500003F10103F9D81B01D9B2A3780A43092B62
:1032600062704FF0000207D90A3BDBB2092B02F172
:103270000102F9D81201D2B21343A370002003B0A7
:10328000BDE8F08F012070472370C9E7404B4149EA
:10329000A3FB07231B0C01FB13712846FFF786FED7
:1032A00000284AD0012003B0BDE8F08F1E2F3AD885
:1032B0000137511CA9E72CFA03F1C907F6D423F012
:1032C000020104292DD009292BD04FF0640A32497C
:1032D0001FFA80F9A1FB09814FEA5118C9090BFBBC
:1032E00011910AFB189889B202F1010A022B01918F
:1032F0001FFA88F8514688D109F0030306E0F24529
:1033000007F101070AD252460AF1010A1B2FF6D92A
:103310001C2F20D01D2F27D0D645F4D8FAB2022179
:1033200078E71D2FC4D90133511C01276DE7BFB2C7
:1033300047EA044700E7002180E74FF0FF312846C5
:10334000FFF748FE00283FF43FAFABE7002184E7DA
:10335000012211465EE73BB9B8F1000F01D1019B94
:1033600013B9D6450AD952460132964503D9511CA4
:103370000227032349E7012203214BE71D220221F3
:1033800048E700BFC5B3A29189888888ABAAAAAADA
:1033900007452EC2805101001F85EB5100284DD0FA
:1033A00000294BD0037C012B27D070B502230124C8
:1033B000437404741ABBCB78C3734E7846738A780F
:1033C000827304460D4618463146FFF76DFD2073A3
:1033D000287021688D69CA698869AEB283B29E423D
:1033E00054D0CB699BB243EA00432D4A934227D87D
:1033F000012300206374207470BD02207047CA78D6
:10340000130903EB830402F00F0303EB4403DBB265
:10341000C3734A78160906EB860402F00F0606EB22
:103420004406F6B246738C78220902EB820504F05A
:103430000F0202EB4502D2B28273C2E7012070474D
:10344000184DA2F60F62A5FB03152D0C02FB1535D6
:1034500020462946FFF7AAFD0646D8B923681A6A0E
:10346000596A89B241EA02414B1CC1D08D42BFD991
:1034700001F5A83101F5C0712046FFF7ABFD00282A
:10348000B6D0042326746374012070BD93B243EA5E
:103490000543AAE70422002362742374012070BD4F
:1034A0008F5F010007452EC200232DE9F04182B055
:1034B000ADF804308DF80630002841D000293FD007
:1034C00090460E461A4601A90746FFF715FE00284A
:1034D00036D13B7B3370FD7BF5707C7B7470BB7B9E
:1034E000B370B8F1000F2CD0092D024607D90A3D60
:1034F000EDB2092D02F10102F9D81201D2B2154341
:10350000092CF5704FF0000207D90A3CE4B2092CEF
:1035100002F10102F9D81201D2B21443092B7470DE
:103520004FF0000207D90A3BDBB2092B02F101027E
:10353000F9D81201D2B21343B37002B0BDE8F081E2
:10354000012002B0BDE8F0810023F0B583B0ADF8F2
:1035500004308DF8063058B151B1057C0446012D78
:1035600009D1022003B0F0BD042200236274237449
:10357000012003B0F0BD4FF0010E022716460D46A4
:103580001A4601A980F810E04774FFF7B5FD00283E
:10359000EED14FF4616E9DF805309DF80470C3EBD9
:1035A00003139B000EFB07339DF806701F44C6B93A
:1035B0006B782978C3EB03139B000EFB0131AB78CA
:1035C0001944B9423CBF01F5A83101F5C07120464C
:1035D000FFF700FD0028C7D101232074637403B0F6
:1035E000F0BD68782B78020902EB820100F00F022F
:1035F00002EB41021909D2B203F00F0301EB810182
:10360000A87803EB4101C2EB02129200C9B2030990
:103610000EFB012103EB830300F00F0000EB4300DE
:10362000C0B20144CDE700BF0023F0B583B0ADF8D0
:1036300004308DF8063058B151B1057C0446012D97
:1036400009D1022003B0F0BD042200236274237468
:10365000012003B0F0BD4FF0010E022716460D46C3
:103660001A4601A980F810E04774FFF745FD0028CD
:10367000EED14FF4616E9DF805309DF80470C3EBF8
:1036800003139B000EFB07339DF806701F444EBBCF
:103690006B782978C3EB03139B000EFB0131AB78E9
:1036A0001944B9423CBF01F5A83101F5C07120466B
:1036B000FFF790FC0028C7D16FF0020101252268B6
:1036C000194B5160116841F0020111601A6842F40F
:1036D00000321A609A6842F400329A60207465746D
:1036E00003B0F0BD68782B78020902EB820100F08C
:1036F0000F0202EB41021909D2B203F00F0301EBF2
:103700008101A87803EB4101C2EB02129200C9B219
:1037100003090EFB012103EB830300F00F0000EB14
:103720004300C0B20144BCE700040140002856D069
:10373000002954D0F0B54FF461660068294A056A43
:10374000446A294FA4B244EA0544A2FB0452D20AB7
:1037500006FB12442548A0FB040EA7FB02074FEA14
:103760005E1E3F09CEEB0E1607EB4707A4EB86065D
:10377000A2EBC707FDB2F2B25FFA8EF48A700D7049
:103780004C7053B3092F4FF0000307D90A3DEDB237
:10379000092D03F10103F9D81B01DBB21D43BEF172
:1037A000090F0D704FF0000307D90A3CE4B2092C51
:1037B00003F10103F9D81B01DBB21C43092E4C7045
:1037C0004FF0000307D90A3AD2B2092A03F10103E4
:1037D000F9D81B01DBB21A438A700020F0BD01202A
:1037E000704700BFC5B3A291ABAAAAAA89888888EE
:1037F00068B3027C70B5012A044601D1022070BD75
:1038000002230125026843741368057423F0020340
:103810001360FFF799FB064628B1042200232846CF
:103820006274237470BD6FF002004FF6FF7123685D
:103830000A4A5860196259621368204623F400331B
:103840001360FFF799FB20B96574207470BD0120E7
:103850007047042326742846637470BD0004014039
:10386000704700BF036810B51A680446920702D576
:103870005B689B0706D44FF400310123054A516170
:10388000637410BDFFF7ECFF6FF0020223685A600B
:10389000F1E700BF0004014070B505460C46FCF797
:1038A000EBFC0646B5B12A6801E0611C09D15368FA
:1038B0009B07FAD56FF002010123516000206B7461
:1038C00070BD24B1FCF7D8FC801B8442EBD20320EE
:1038D000687470BD012070BD407C7047C0B1026843
:1038E00038B55368044623F008035360FCF7C4FC62
:1038F000054605E0FCF7C0FC401BB0F57A7F05D813
:1039000023685B681B07F5D5002038BD032038BD50
:103910000120704700284DD038B5437C044603F0A1
:10392000FF02002B3AD0022320466374FFF7D6FF34
:1039300018B104230120637438BD2046FFF704FB4F
:103940000028F6D12268A068516821F00701516073
:1039500020B119490B6B23F001030B631649CB6AA5
:1039600023F460730343CB6261684B1C1AD09068E8
:103970008DB220F00F0040EA11409060D3682046DD
:103980001B0C1B042B43D360FFF7F6FA0028D0D1A1
:103990000123E0736373A373637438BD027403F08F
:1039A00033FAC0E70120FFF705FA0028C1D02268EA
:1039B000411EDCE701207047006C004070B508B381
:1039C000022343740446FFF7BFFA054630B10422D0
:1039D0000023012662742374304670BD4FF4004208
:1039E00023682046DD619D61DA609D601D605D6039
:1039F000FFF7C2FA064640B104230126257463741A
:103A0000304670BD0126304670BD2046FFF766FF88
:103A100022682046536823F00803536003F014FA29
:103A200066742674304670BD034A136823F07F0322
:103A3000194301431160704700000140024A1368B6
:103A400043F080031360704700000140024A13688E
:103A500023F0800313607047000001402DE9F04F10
:103A60004FF0000885B043466FF01F06DFF8E0E135
:103A7000DFF8E0C1704F009005E00133102B06F134
:103A8000040600F08B8001220C689A401440A24288
:103A9000F3D14D68122D00F0A58000F28E80022D2A
:103AA00000F0A78040F28380032D00F09F80112D4D
:103AB00002D1CA6802F10408FF2C72D8009A4FEABA
:103AC000830A914612680F2505FA0AFB22EA0B02C7
:103AD00008FA0AFA42EA0A02C9F80020D1F804A05A
:103AE0001AF0805FC9D0DEF8189023F0030249F085
:103AF0000109CEF81890DEF8189002F1804209F022
:103B00000109CDF80C9002F5803203F00309DDF8CD
:103B10000CB04FEA8909D2F808B005FA09F52BEA8A
:103B2000050001900098604579D0444DA84279D0B5
:103B3000434D0098A8427AD0424D0098A8420CBF4D
:103B40004FF0030B4FF0040B0BFA09F901981AF42C
:103B5000803F40EA090595603A6803F1010314BF0C
:103B60002243A2433A607A681AF4003F14BF22430A
:103B7000A2437A60BA681AF4801F14BF2243A2439A
:103B8000BA60FA681AF4001F14BF144322EA04044E
:103B9000102BFC6006F104067FF475AF05B0BDE89C
:103BA000F08F0098B246426800F104098BE7A5B196
:103BB000012D81D1D1F80C807EE7234885420CD0BD
:103BC0001BD92248854208D000F58030854204D0B8
:103BD000DFF884904D457FF46FAF8D68BDB94FF02D
:103BE000040869E7CA6802F10C0865E74FF00008AD
:103BF00062E7CA6802F108085EE7DFF860904D45A9
:103C0000EBD009F580394D457FF456AFE5E70098D4
:103C1000012D0CBF026142614FF008084CE74FF0E4
:103C2000000993E74FF0010B0BFA09F98EE74FF00B
:103C3000020B0BFA09F989E700040140000C01406E
:103C4000001001400014014000002110000031105C
:103C50000010024000080140000022100000111076
:103C600000297CD02DE9F04F002283B06FF01F07B0
:103C70004FF001094FF00F0A4FF0040BDFF8EC8012
:103C800039E0054604689600DB430AFA06FE24EA9A
:103C90000E040BFA06F634432C60C46822F00305C8
:103CA0001C4005F18045C46005F5803502F0030431
:103CB000AE68A4000AFA04FE06EA0E060196284E33
:103CC000B04242D006F58066B04240D0254EB042A8
:103CD00040D0254EB0420ABF4FF0030C0BFA04F45B
:103CE0000CFA04F4019EA6420FD0013231FA02F31D
:103CF00007F1040726D009FA02F30B40F5D0FF2B99
:103D0000BFD93E464468051DBEE7AC68013224EACF
:103D10000E04AC60D8F8004004371C40C8F80040DE
:103D2000D8F804401C40C8F80440D8F808401C40AB
:103D3000C8F80840D8F80C402340C8F80C3031FAD5
:103D400002F3D8D103B0BDE8F08F0024CAE709FA26
:103D500004F4C7E74FF0020C0CFA04F4C2E7704712
:103D6000000801400010014000140140000401401F
:103D70008368194214BF01200020704702B909046A
:103D800001617047C3685940C16070474FF4803388
:103D900082B00193019B0B430193019B836181617D
:103DA000019B836183690193806980F48030C0F353
:103DB000004002B0704700BF704700BF044A51691D
:103DC000014200D1704708B55061FFF7F5FF08BD0B
:103DD0000004014000282ED00346F0B40024012640
:103DE0008768426805681549C0683A43144F2944FA
:103DF00002431869A7FB01715F6902433A439F6957
:103E000028683A43DF6920F47F503A4320F03000BD
:103E10000C4F090902438900DF63204619642A60B8
:103E20009C62DC621C635C639C6383F8204083F8C3
:103E30002160F0BC70470120704700BFF8FFFDBF54
:103E4000CDCCCCCC0000024000B370B401250022E0
:103E5000014604680E4B0F482344A0FB030320686F
:103E60001B090D4E9B0020F001009D402060226048
:103E700010466260A260E260CE630B6475608A6384
:103E800081F8212081F8202070BC70470120704704
:103E9000F8FFFDBFCDCCCCCC00000240F0B590F8CF
:103EA0002040012C0CD0012590F8214080F82050B2
:103EB000AC4208D00022022380F820201846F0BD32
:103EC00002231846F0BD00264FF0020E0568076C6D
:103ED00086632E68BC4080F821E0C76B406826F0FE
:103EE000010610282E607C606B600BBFAA60A96081
:103EF000E960EA602A68002342F001022A60DDE7F7
:103F0000F0B590F82040012C0CD0012590F821400C
:103F100080F82050AC4208D00022022380F82020F4
:103F20001846F0BD02231846F0BD00264FF0020CE3
:103F3000056886632E68076CD0F83CE0BC4026F02C
:103F40000106476880F821C02E60CEF804406B60FF
:103F5000C36A102F0BBFAA60A960E960EA604BB189
:103F60002B6843F00E032B602A68002342F0010205
:103F70002A60D5E72B6823F004032B602B6843F0FD
:103F80000A032B60F0E700BF034670B4012500244C
:103F90000268016C1068DE6B20F00E001060106883
:103FA00005FA01F120F0010010607160204683F8ED
:103FB000215083F8204070BC704700BF38B590F89E
:103FC0002130022B04D0042201248263204638BD14
:103FD00003681D491A688B4222F00E021A601A68A3
:103FE00022F001021A6021D0184A93421CD01432E8
:103FF00093421FD0143293421FD0143293421FD0E9
:10400000143293420CBF4FF480134FF080730121A0
:1040100000240F4D426B6B6080F8211080F8204027
:1040200032B19047204638BD1023F0E70123EEE778
:104030001446CBE74FF48073E9E74FF48053E6E78B
:104040004FF48033E3E700BF080002401C00024049
:10405000000002402DE9F04F90F8215083B0022D6E
:10406000064608D004220023826380F82030012015
:1040700003B0BDE8F08F0368186880067FD48448D9
:10408000002958D1834216D01430834200F0D980E1
:104090001430834200F0CC801430834200F0D5808D
:1040A0001430834200F0DB807A4DAB4214BF4FF0F6
:1040B00000754FF4001517460191FCF7DDF8044632
:1040C000DFF8CC81DFF8D491DFF8D4A1DFF8D4B1E8
:1040D00033687149DFF8D0E1DFF8B8C111E04B4532
:1040E00042D0534542D05B4543D0734544D06345ED
:1040F00014BF4FF000604FF4000010420AD17A1C48
:1041000062D10A68154241D143450A68E7D10820C7
:104110001042F4D001200022336CF16B00FA03F35B
:104120004B60B36B86F821000343B36386F820200D
:1041300003B0BDE8F08F834200F0818014308342E9
:1041400000F08180143083426FD0143083427FD0DE
:104150001430834200F086804E4DAB4214BF4FF0C6
:1041600080654FF48005A6E78020C6E74FF4006025
:10417000C3E74FF40040C0E74FF40020BDE74FF421
:1041800080730120B36303B0BDE8F08F019A6ABB6E
:104190003F4A934251D0143293425CD0143293423E
:1041A00063D01432934266D01432934269D01432F1
:1041B000934214BF4FF000734FF4001301223649AD
:1041C0004B6086F8212029E02FB1FCF755F8001B41
:1041D0008742BFF47DAF01200022B36B86F8210037
:1041E00043F02003B36386F8202041E7284A934236
:1041F00021D01432934230D01432934238D014324A
:1042000093423BD0143293423ED01432934214BFB7
:104210004FF080634FF480031F4A53600023184619
:1042200086F8203003B0BDE8F08F4FF4806542E798
:104230004FF400753FE70423EEE70223BEE70425B1
:1042400039E7202537E7402535E74FF4005532E7B9
:104250004FF480452FE72023B0E74023DCE74FF4FD
:10426000003528E74FF4802525E74FF40073A5E7D4
:104270004FF48063D0E74FF400539FE74FF480433F
:10428000CAE74FF4003399E74FF48023C4E700BF37
:10429000080002406C000240000002401C00024086
:1042A0003000024044000240580002400422F0B4B2
:1042B000C66B016C346803688A4022421D681FD0B7
:1042C0006F071DD51A68920603D41A6822F00402FB
:1042D0001A603F4A93425DD01432934262D0143246
:1042E000934269D0143293426CD0143293425BD023
:1042F000143293420CBF4FF480034FF080634AE0C6
:1043000002228A40224222D0AF0720D51A689106A5
:1043100006D401211A6822F00A021A6080F82110DE
:104320002B4A93422CD01432934243D014329342FE
:1043300045D01432934248D01432934237D01432CD
:1043400093420CBF4FF400134FF0007319E00822A2
:104350008A4022421CD02A071AD5012200271C6855
:10436000056B24F00E0402FA01F11C607160826397
:1043700080F8212080F8207055B12B46F0BC1847FA
:1043800002230021134C826A636080F820103AB93E
:10439000F0BC704704230F49C26A4B60002AF7D073
:1043A000F0BC10474023F6E74FF48023F3E74FF4C7
:1043B0000033E6E72023E4E74FF48063EBE74FF4B4
:1043C0000073DEE74FF48043E5E74FF40053D8E78E
:1043D0000800024000000240034690F82000012837
:1043E0000CD0012010B493F8214083F820008442BF
:1043F00006D0002210BC83F82020704702207047AE
:1044000003290FD8DFE801F00B0805025A630020EA
:10441000EFE71A630020ECE7DA620020E9E79A622E
:104420000020E6E70120E4E790F820300246012B67
:104430000BD0012390F8210082F82030984206D05A
:104440000120002382F820307047022070470429A1
:10445000F6D8DFE801F0120F0C090300002090628B
:10446000D06210635063ECE700205063E9E700205E
:104470001063E6E70020D062E3E700209062E0E707
:1044800090F82100704700BF806B704738B5054633
:104490004CF25030FEF776FB00B138BD124B134C96
:1044A000D86123694CF2503043F020032361236923
:1044B00043F040032361FEF765FB236923F02003EB
:1044C00023610028E9D12369094A43F01003ADB202
:1044D00023614CF250301580FEF754FB236923F022
:1044E0001003236138BD00BFF010002000200240FF
:1044F00000F8FF1F2DE9F8432E4E337E012B43D0E9
:10450000012203688146022B884632764CF25030F5
:1045100032D0FEF737FB90BB4FF0FF33C8F80030C6
:10452000D9F80850D9F80C3005EB83239D4226D2E8
:104530000746214C09E0D9F80C20D9F8083005F5D8
:10454000806503EB8223AB421AD9F76123694CF2F1
:10455000503043F0020323616561236943F0400357
:104560002361FEF70FFB236923F002032361002878
:10457000E1D0C8F8005003E0FEF704FB38B1012099
:1045800000233376BDE8F8830220BDE8F8830A4CA7
:10459000F06123694CF2503043F004032361236936
:1045A00043F040032361FEF7EDFA236923F004038F
:1045B0002361E5E7F0100020002002401A4B1A7E2C
:1045C000012A23D070B4012419781C7601F0FF026F
:1045D000C9B916490D6945F4A0550D610568022D4C
:1045E00016D0C668856810461C705E609D60DA61F2
:1045F0000B6943F002030B614D610B6943F040030B
:104600000B6170BC7047204670BC70470220704739
:104610001D70DA610B69104643F004030B610B69EE
:1046200043F040030B61ECE7F01000200020024053
:1046300038B5134C4CF25030E36913F0020F0CBF45
:10464000A5250025FEF79EFA034600B138BD0D4AA8
:104650004CF25030D361236943F020032361236976
:1046600043F040032361FEF78DFA236923F0200312
:1046700023610028EAD12846BDE8384006E700BF9C
:1046800000200240F01000202DE9F8438C4E337ECC
:10469000012B68D0012403680546D80734760BD473
:1046A000990764D45A076AD41B0700F18D80002350
:1046B00020463376BDE8F8836B68824FA3424CF204
:1046C0005030D7F82080D5F8089000F09B80FEF796
:1046D00059FA04460028EAD1F061FFF7A9FF044621
:1046E0000028E4D13B6949EA08085FFA88F243F000
:1046F0001003FF2A3B6140F0CA80C8F30723FF2B59
:1047000009D071494CF250304A8992B213434B811F
:10471000FEF738FAE8B9C8F30743FF2B09D06A4916
:104720004CF250308A8992B213438B81FEF72AFAF9
:1047300078B94FEA1868B8F1FF0F0BD0624A4CF213
:104740005030D3899BB243EA0808A2F80E80FEF7E6
:1047500019FA04465B4A136923F010031361002C15
:10476000A5D12B689CE702242046BDE8F883287C6D
:10477000FFF78CFE0446002899D12B6892E74CF293
:1047800050306F7CFEF7FEF9044600288FD1DFF829
:104790003481F061D8F810304B4A43F0100347F0F1
:1047A0008807C8F810304CF250305780FEF7EAF90D
:1047B000D8F81030044623F01003C8F81030002851
:1047C0007FF475AF2B686FE74CF25030D5F814804A
:1047D0002D7EFEF7D7F9044600287FF468AF394FE5
:1047E000F0613B69ADB243F010033B614CF25030D5
:1047F000A8F80050FEF7C6F93B69044623F0100301
:104800003B6154E7FEF7BEF9044600287FF44FAF42
:10481000F061FFF70DFF044600287FF448AF3B69C5
:1048200028EA09085FFA88F243F01003FF2A3B6187
:104830003AD1C8F30723FF2B09D0234A4CF250305A
:1048400051890B405381FEF79DF9002881D1C8F3AF
:104850000743FF2B0AD01C4A4CF2503091890B4081
:104860009381FEF78FF900287FF473AF4FEA186841
:10487000B8F1FF0F3FF46EAF134B4CF25030DA89B2
:1048800008EA0208A3F80E80FEF77CF961E70E49FA
:104890004CF250300B899BB21A430A81FEF772F931
:1048A00000287FF456AF28E7074B4CF250301989A7
:1048B0000A401A81FEF766F900287FF44AAFB8E78C
:1048C000F01000200020024000F8FF1F0722084BD4
:1048D00002601A6A8260DA6912F0020F0CBFA52228
:1048E00000220274DB69C3F382034374704700BF84
:1048F00000200240044B9842044BD8690CBFC0F31F
:104900008720C0F38740704704F8FF1F0020024053
:104910000021064A064BD1611A6942F002021A616F
:1049200058611A6942F040021A617047F010002085
:1049300000200240026AF0B422F001028E68026296
:10494000036A114D476882690C6823F0020322F064
:104950007302A84243EA060342EA040206D0496809
:1049600047608261F0BC416303627047CE684C6966
:104970008D6923F0080327F4407733432C4323F059
:1049800004032743EBE700BF002C0140026AF0B4A8
:1049900022F480728E680262036A124D4768C2690F
:1049A0000C6823F4007322F07302A84243EA062342
:1049B00042EA040206D049684760C261F0BCC163A4
:1049C00003627047CE684C698D6923F4006327F455
:1049D000405743EA06232C4323F4806347EA041735
:1049E000E9E700BF002C0140026AF0B422F48052D3
:1049F0008F680262036A0D4E4568C2690C6823F431
:104A0000005322F4E642B04243EA073342EA04226A
:104A100006D049684560C261F0BC0164036270471A
:104A20004C6925F4804545EA8415F2E7002C0140E5
:104A300002684868936870B423F070030C680343FD
:104A400023F0070323435028936036D024D96028ED
:104A50000ED070280AD1CB688C680869916823430E
:104A600043EA002321F47F410B43936070BC7047FD
:104A7000106A8C6820F010000D6910629169136A49
:104A800021F4704123F0A00341EA053143EA041305
:104A9000916170BC136270474028E7D1146A106AB4
:104AA0000D6920F001001062936923F0F00343EADE
:104AB00005139361146270BC7047146A156A0E691D
:104AC00025F0010588681562936924F00A0123F036
:104AD000F00343EA06130143936170BC116270470F
:104AE000704700BF704700BF022141F211120368F6
:104AF00010B580F83D10196A0446114208D140F201
:104B00004442196A114203D11A6822F001021A6064
:104B10002046FFF7E7FF002084F83D0084F83C00C2
:104B200010BD00BF022210B401240346016880F8C2
:104B30003D200A68002022430A6083F83D4010BCF3
:104B4000704700BF0346022041F211111A6883F832
:104B50003D00106A084208D140F24441106A084200
:104B600003D1116821F0010111600122002083F8B6
:104B70003D20704703680020DA6842F00102DA60E5
:104B80001A6842F001021A60704700BF41F2111129
:104B90000368DA6822F00102DA601A6A0A4208D170
:104BA00040F24442196A114203D11A6822F001020C
:104BB0001A600020704700BF70B590F83D40E4B225
:104BC000022C21D090F83D40E4B2012C15D00446CF
:104BD0001346006A22680D4E0D4D866205632C3225
:104BE000FFF78EF923680020DA6842F48072DA60F9
:104BF0001A6842F001021A6070BD19B1022380F8F0
:104C00003D30E4E7002AF9D0204670BDD15E0008AF
:104C1000F1600008014641F211100B68DA6822F4D5
:104C20008072DA601A6A024208D140F24442186A7D
:104C3000104203D11A6822F001021A6001230020F9
:104C400081F83D30704700BF704700BF704700BF1C
:104C5000022141F21112036810B580F83D10196A63
:104C60000446114208D140F24442196A114203D16C
:104C70001A6822F001021A602046FFF7E7FF0020C1
:104C800084F83D0084F83C0010BD00BF0122036899
:104C900002FA01F11A6A134822EA010119621A6A3A
:104CA00083421A620FD041F21112196A114208D1DF
:104CB00040F24442196A114203D11A6822F00102FB
:104CC0001A600020704741F21112196A1142EAD1AC
:104CD00040F24442196A1142E5D15A6C22F4004272
:104CE0005A64E0E7002C0140704700BF704700BFE6
:104CF000022141F21112036810B580F83D10196AC3
:104D00000446114208D140F24442196A114203D1CB
:104D10001A6822F001021A602046FFF7E7FF002020
:104D200084F83D0084F83C0010BD00BF01220368F8
:104D300002FA01F11A6A0A4822EA01021A621A6AA0
:104D4000834241EA0201196205D01A68002042F04C
:104D500001021A6070475A6C42F400425A64F4E748
:104D6000002C0140FFF7E2BF0122036802FA01F1C3
:104D70001A6A10B422EA01011962044613481A6A39
:104D800083421A6213D041F21112196A114208D1FA
:104D900040F24442196A114203D11A6822F001021A
:104DA0001A600123002084F83D3010BC704741F2A6
:104DB0001112196A1142E6D140F24442196A1142B5
:104DC000E1D15A6C22F400425A64DCE7002C014025
:104DD0000C2932D8DFE801F0253131312B31313166
:104DE0001F31313107000368DA6842F01002DA60DF
:104DF0000122186A02FA01F120EA01001862186A19
:104E0000114A01439342196219D01A68002042F0F6
:104E100001021A6070470368DA6842F00802DA603B
:104E2000E6E70368DA6842F00202DA60E0E7036866
:104E3000DA6842F00402DA60DAE70368D8E75A6C0D
:104E400042F400425A64E0E7002C0140FFF7C0BF83
:104E50000C293BD8DFE801F0343A3A3A2E3A3A3A94
:104E6000283A3A3A07000368DA6822F01002DA605A
:104E700001201A6A00FA01F122EA010119621C4AB2
:104E8000196A9342196223D041F21112196A114230
:104E900008D140F24442196A114203D11A6822F043
:104EA00001021A60002070470368DA6822F00802E5
:104EB000DA60DDE70368DA6822F00402DA60D7E737
:104EC0000368DA6822F00202DA60D1E70368CFE70C
:104ED00041F21112196A1142D6D140F24442196AC4
:104EE0001142D1D15A6C22F400425A64CCE700BF7F
:104EF000002C0140FFF7ACBFF8B590F83D40E4B29C
:104F0000022C15D090F83D40E4B2012C0CD00D4697
:104F100004460C2D6CD8DFE805F00D6B6B6B456B10
:104F20006B6B326B6B6B5800002A63D1002B61D026
:104F30002046F8BD2668406ADFF8D4E0324F1146BB
:104F4000C0F828E006F134020763FEF7D9FF2368B2
:104F5000DA6842F40072DA600122186A02FA05F196
:104F600020EA01001862186A284A01439342196234
:104F700044D01A68002042F001021A60F8BD266889
:104F8000C06ADFF88CE0204F1146C0F828E006F137
:104F90003C020763FEF7B4FF2368DA6842F400625C
:104FA000DA60D9E72668806ADFF864E0164F1146B8
:104FB000C0F828E006F138020763FEF7A1FF236876
:104FC000DA6842F48062DA60C6E72668006BDFF8D0
:104FD00040E00D4F1146C0F828E006F1400207639B
:104FE000FEF78EFF2368DA6842F48052DA60B3E796
:104FF0000368B1E7022480F83D4088E75A6C42F428
:1050000000425A64B5E700BFF1600008002C01407F
:10501000395F0008FFF770BF10B404460C293FD871
:10502000DFE801F0383E3E3E323E3E3E2C3E3E3E04
:1050300007000368DA6822F48052DA6001201A6AF5
:1050400000FA01F122EA010119621E4A196A93422B
:10505000196227D041F21112196A114208D140F2A7
:105060004442196A114203D11A6822F001021A60FF
:105070000123002084F83D3010BC70470368DA68D3
:1050800022F40062DA60D9E70368DA6822F4806209
:10509000DA60D3E70368DA6822F40072DA60CDE7F9
:1050A0000368CBE741F21112196A1142D2D140F2E2
:1050B0004442196A1142CDD15A6C22F400425A641A
:1050C000C8E700BF002C0140FFF7A6BF704700BF34
:1050D000704700BF022141F21112036810B580F839
:1050E0003D10196A0446114208D140F24442196A3F
:1050F000114203D11A6822F001021A602046FFF71C
:10510000E7FF002084F83D0084F83C0010BD00BF9C
:105110000122036802FA01F11A6A002022EA010260
:105120001A621A6A114319621A6842F001021A607F
:10513000704700BF012210B441F21114036802FA53
:1051400001F11A6A22EA010119621A6A1A621A6ADC
:10515000224208D140F24442196A114203D11A682E
:1051600022F001021A60002010BC70470C292FD8D1
:10517000DFE801F0282E2E2E222E2E2E1C2E2E2E73
:1051800007000368DA6842F01002DA600122186A48
:1051900002FA01F120EA010018621A6A00201143A4
:1051A00019621A6842F001021A6070470368DA68EF
:1051B00042F00802DA60E9E70368DA6842F00402C4
:1051C000DA60E3E70368DA6842F00202DA60DDE7FA
:1051D0000368DBE710B40C2939D8DFE801F0323876
:1051E00038382C3838382638383807000368DA68F9
:1051F00022F01002DA60012041F211141A6A00FA5A
:1052000001F122EA010119621A6A1A621A6A22423B
:1052100008D140F24442196A114203D11A6822F0BF
:1052200001021A60002010BC70470368DA6822F09F
:105230000802DA60DFE70368DA6822F00402DA6065
:10524000D9E70368DA6822F00202DA60D3E703687C
:10525000D1E700BFF8B590F83D40E4B2022C12D07F
:1052600090F83D40E4B2012C0FD00D4604460C2DC1
:105270005CD8DFE805F0105B5B5B2E5B5B5B3D5B46
:105280005B5B4C001BB12046F8BD002AFAD002241B
:1052900080F83D40E9E72168406A254F254E876246
:1052A00006633431FEF72CFE2468E36843F4007390
:1052B000E3600123226A03FA05F122EA0102226275
:1052C000236A002019432162236843F0010323600D
:1052D000F8BD2168806A164F164E87620663383122
:1052E000FEF70EFE2468E36843F48063E360E0E7C2
:1052F0002168C06A0E4F0F4E876206633C31FEF78D
:10530000FFFD2468E36843F40063E360D1E72168AC
:10531000006B074F074E876206634031FEF7F0FDD2
:105320002468E36843F48053E360C2E70468C0E79D
:10533000E95E0008F160000830B404460C293CD84E
:10534000DFE801F0353B3B3B2F3B3B3B293B3B3B05
:1053500007000368DA6822F48052DA60012041F223
:1053600011151A6A00FA01F122EA010119621A6A9A
:105370001A621A6A2A4208D140F24442196A11425A
:1053800003D11A6822F001021A600123002084F878
:105390003D3030BC70470368DA6822F40062DA609E
:1053A000DCE70368DA6822F48062DA60D6E7036833
:1053B000DA6822F40072DA60D0E70368CEE700BF53
:1053C000704700BF704700BF022141F2111203680D
:1053D00010B580F83D10196A0446114208D140F218
:1053E0004442196A114203D11A6822F001021A607C
:1053F0002046FFF7E7FF002084F83D0084F83C00DA
:1054000010BD00BF03680D491A6A8B4222F00102E9
:105410001A621A6A42F001021A621A6A22F0100233
:105420001A621A6A42F010021A6201D00020704714
:105430005A6C002042F400425A647047002C01402C
:10544000036817491A6A8B4222F001021A621A6A2B
:105450001A621A6A22F010021A621A6A1A620FD0CD
:1054600041F21112196A114208D140F24442196AFC
:10547000114203D11A6822F001021A60002070471D
:1054800041F21112196A1142EAD140F24442196AFA
:105490001142E5D15A6C22F400425A64E0E700BFA1
:1054A000002C014003681149DA688B4242F0020285
:1054B000DA60DA6842F00402DA601A6A22F0010265
:1054C0001A621A6A42F001021A621A6A22F0100283
:1054D0001A621A6A42F010021A6201D00020704764
:1054E0005A6C002042F400425A647047002C01407C
:1054F00003681B49DA688B4222F00202DA60DA683C
:1055000022F00402DA601A6A22F001021A621A6AB0
:105510001A621A6A22F010021A621A6A1A620FD00C
:1055200041F21112196A114208D140F24442196A3B
:10553000114203D11A6822F001021A60002070475C
:1055400041F21112196A1142EAD140F24442196A39
:105550001142E5D15A6C22F400425A64E0E700BFE0
:10556000002C0140704700BF704700BF022141F28C
:105570001112036810B580F83D10196A04461142F3
:1055800008D140F24442196A114203D11A6822F04C
:1055900001021A602046FFF7E7FF002084F83D0073
:1055A00084F83C0010BD00BFD1B1042916D00368B7
:1055B0001A6A22F001021A621A6A42F001021A62A1
:1055C0001A6A22F010021A621A6A42F010021A6273
:1055D0001A68002042F001021A6070470368EFE782
:1055E00003681A6A22F001021A621A6A42F0010282
:1055F0001A62EDE701B304291CD003681A6A22F08D
:1056000001021A621A6A1A621A6A22F010021A62F7
:105610001A6A1A6241F21112196A114208D140F253
:105620004442196A114203D11A6822F001021A6039
:10563000002070470368E7E703681A6A22F0010256
:105640001A621A6A1A62E5E700292ED004291ED0D0
:1056500003681A6A22F001021A621A6A42F0010211
:105660001A621A6A22F010021A621A6A42F01002D2
:105670001A62DA6842F00202DA60DA6842F0040282
:10568000DA601A68002042F001021A60704703686D
:105690001A6A22F010021A621A6A42F010021A62A2
:1056A000DA6842F00402DA60EBE703681A6A22F073
:1056B00001021A621A6A42F001021A62DA6842F0C2
:1056C0000202DA60DDE700BF02460368E1B9196A49
:1056D00021F001011962196A1962D96821F00201E9
:1056E000D96041F21111186A084208D140F24441D0
:1056F000186A084203D1196821F0010119600123D9
:10570000002082F83D3070470429196A13D021F037
:1057100001011962196A1962196A21F010011962EE
:10572000196A1962D96821F00201D960D96821F09B
:105730000401D960D5E721F010011962196A1962D4
:10574000D96821F00401D960CBE700BF2DE9F04111
:1057500090F83D40BDF81850E4B2022C0FD090F8FC
:105760003D40012C0ED004291F460C46064616D09B
:10577000182955D0002933D00020BDE8F0812046FB
:10578000BDE8F081002A00F08180002B7ED0022449
:10579000042980F83D401F460C460646E8D1316892
:1057A000806ADFF8F8E03C4C2B463A46C0F828E027
:1057B00004633831FEF7A4FB33680020DA6842F452
:1057C0008062DA601A6842F001021A601A6A22F0F6
:1057D00010021A621A6A42F010021A62BDE8F081E1
:1057E0003168406ADFF8B4E02B4F2B46C0F828E060
:1057F00007633431FEF784FB33682046DA6842F4ED
:105800000072DA601A6842F001021A601A6A22F025
:1058100001021A621A6A42F001021A62BDE8F081BE
:105820003168406ADFF874801B4C2B46C0F8288032
:1058300004633431FEF764FB3168B06A2B463A46A4
:10584000C0F8288004633831FEF75AFB3368002023
:105850001A6842F001021A601A6A22F001021A6202
:105860001A6A42F001021A621A6A22F010021A62DF
:105870001A6A42F010021A62DA6842F40072DA60C0
:10588000DA6842F48062DA60BDE8F081002D3FF40E
:105890007EAF0120BDE8F081F1600008E95E0008FC
:1058A00002460368E1B9196A21F001011962196A17
:1058B0001962D96821F40071D96041F21111186A96
:1058C000084208D140F24441186A084203D11968DD
:1058D00021F0010119600123002082F83D3070475A
:1058E0000429196A13D021F001011962196A196299
:1058F000196A21F010011962196A1962D96821F434
:105900000071D960D96821F48061D960D5E721F0B0
:1059100010011962196A1962D96821F48061D9608D
:10592000CBE700BFF8B590F83D40069DE4B2022CED
:1059300019D090F83D40E4B2012C2AD0B2F5006FA6
:1059400016460F4604462FD00FD8B2F5007F40D040
:10595000B2F5806F41D0B2F5807F0FD1006ADFF8D9
:1059600094C024E0BDB12046F8BDB2F5005F2CD054
:10597000B2F5804F39D0B2F5805F32D00121236873
:105980003D439D64DA6800203243DA6084F83D10BC
:10599000F8BD002BE6D00224B2F5006F80F83D4040
:1059A00016460F460446CFD1C06ADFF84CC02268C5
:1059B000DFF848E019462B0AC0F828C0C0F830E0EC
:1059C0004C320133FEF79CFAD8E7406BDFF830C069
:1059D000EDE7406ADFF820C0E9E7806ADFF818C029
:1059E000E5E7006BDFF810C0E1E7806BDFF814C07B
:1059F000DDE700BFD15E0008395F0008F1600008F4
:105A00000D290008DD600008F8B590F83D40069DBE
:105A1000E4B2022C19D090F83D40E4B2012C2AD017
:105A2000B2F5006F16460F4604462FD00FD8B2F5D8
:105A3000007F40D0B2F5806F41D0B2F5807F0FD1AA
:105A4000006ADFF894C024E0BDB12046F8BDB2F58D
:105A5000005F2CD0B2F5804F39D0B2F5805F32D0E4
:105A6000012123683D439D64DA6800203243DA60F7
:105A700084F83D10F8BD002BE6D00224B2F5006F8B
:105A800080F83D4016460F460446CFD1C06ADFF885
:105A90004CC02168DFF848E01A462B0AC0F828C03D
:105AA000C0F830E04C310133FEF72AFAD8E7406BFA
:105AB000DFF830C0EDE7406ADFF820C0E9E7806A30
:105AC000DFF818C0E5E7006BDFF810C0E1E7806B96
:105AD000DFF814C0DDE700BFD15E0008E95E000812
