:020000040800F2
:10000000005000204D820008B1670008B567000865
:10001000B9670008BD670008C1670008000000005C
:10002000000000000000000000000000C56700089C
:10003000C967000800000000CD670008D16700080C
:100040009582000895820008958200089582000834
:100050009582000895820008958200089582000824
:100060009582000895820008958200089582000814
:100070009582000895820008958200089582000804
:10008000E1670008958200089582000895820008C3
:1000900095820008958200089582000895820008E4
:1000A00095820008958200089582000895820008D4
:1000B00095820008958200089582000895820008C4
:1000C00095820008958200089582000895820008B4
:1000D00095820008958200089582000895820008A4
:1000E00095820008958200089582000800000000B3
:1000F0000000000000000000000000000000000000
:0C01000000000000000000005FF808F1A3
:1001100010B5054C237833B9044B13B10448AFF341
:1001200000800123237010BD500400200000000057
:10013000A895000808B5034B1BB103490348AFF36A
:10014000008008BD0000000054040020A8950008AD
:10015000154B002B08BF134B9D46A3F5803A002199
:100160008B460F461348144A121A07F081FE0F4BB4
:10017000002B00D098470E4B002B00D09847002052
:10018000002104000D000D48002802D00C4807F0A3
:1001900029FF07F049FE2000290007F099FF07F02A
:1001A00033FE00BF00000800000000000000000057
:1001B000000000005004002034120020E57F0008F9
:1001C000F17F0008704700BF704700BF10B54FF0C7
:1001D000FF320024044BDA601C61DA60DC60FFF758
:1001E000F3FF204610BD00BF0010024010B50446CA
:1001F000074A084B1068A3FB0030800901F0ACFDF2
:10020000214600224FF0FF3001F042FD002010BDDA
:1002100004000020D34D6210074A08B5136803207C
:1002200043F01003136001F021FD0020FFF7DEFF13
:1002300006F01EFA002008BD00200240024A1368A2
:1002400001331360704700BFF0100020014B1868A5
:10025000704700BFF010002030B583B00190FFF769
:10026000F5FF0546019C631C18BF0134FFF7EEFF44
:10027000401BA042FAD303B030BD00BF024A13684E
:1002800023F002031360704710E000E0024A136895
:1002900043F002031360704710E000E0004870472D
:1002A00000010101014B1868000C7047002004E0B8
:1002B000024B1868C0F30B00704700BF002004E039
:1002C000024A536843F0010353607047002004E082
:1002D000024A536823F0010353607047002004E092
:1002E000024A536843F0020353607047002004E061
:1002F000024A536823F0020353607047002004E071
:10030000024A536843F0040353607047002004E03E
:10031000024A536823F0040353607047002004E04E
:10032000044B054A196808330160126842601B6873
:1003300083607047E8F7FF1FECF7FF1FD8B1D1B11A
:10034000027C0346012A1FD070B4022201250F4C03
:1003500005744274E26A12F4C0720ED1D1E9000150
:10036000266B014326F00306314321635D741A7442
:10037000104670BC70470120704704210022597458
:100380001A74284670BC704702207047006C004009
:10039000F8B1F1B1027C0346012A23D070B40222E5
:1003A0000125114C05744274E26A12F4C07212D134
:1003B000D1E90001266B014326F003063143216396
:1003C000616B104641F0040161635D741A7470BC86
:1003D0007047012070470421002259741A7428467E
:1003E00070BC704702207047006C0040E8B1027C8E
:1003F0000346012A1BD0022130B4012500240D4AF6
:100400004174116B204621F001011163516B21F001
:1004100004015163516B41F003015163516B294356
:1004200051635D741C7430BC70470120704702201A
:10043000704700BF006C0040704700BF38B50A4DE0
:1004400004466B6B5A0702D56B6BDB0502D40123A4
:10045000637438BDFFF7F0FF6B6B43F003036B630E
:100460000123637438BD00BF006C0040F8B5064638
:100470000C46FFF7EBFEC6B107460D4D01E0621CCE
:100480000AD16B6BDB05FAD501226B6B002043F0C0
:1004900003036B637274F8BD24B1FFF7D7FEC01B72
:1004A000A042EED903207074F8BD0120F8BD00BF52
:1004B000006C004088B1027C0346012A0FD0022262
:1004C00030B40125002104684274226808462A439A
:1004D00022605D74197430BC70470120704702209F
:1004E000704700BF90B1027C0346012A10D002225F
:1004F00030B400210125046842742268084622F0C5
:10050000010222605D74197430BC7047012070478D
:1005100002207047704700BF704700BF03681A6829
:10052000D10710D55A68D2070DD55B6810B55B07A7
:10053000044609D4FFF7EEFF012262746FF0010256
:1005400023685A6010BD7047FFF7E6FF04226FF082
:1005500004012368596062746FF001025A6010BD93
:10056000890001F1804101F5D84192B20A607047DB
:10057000890001F1804101F5D841086880B27047D7
:1005800098B1017C0246012911D0022130B4002427
:10059000012508485174C16A21F07F010B43C362F1
:1005A00055741474204630BC7047012070470220F7
:1005B000704700BF006C00402DE9F8430446036813
:1005C000C0681969A26821F4405101431961D968D2
:1005D000D4E9045021F4B0512A4321F00C01024324
:1005E0000A43DA605A69A069514922F44072024311
:1005F0008B425A6155D001F0A5FA636800EB800088
:1006000000EB80009B00B0FBF3F34A4F4FF064080F
:10061000A7FB03235B091D0101F094FA636800EB5B
:1006200080009B0000EB8000B0FBF3F601F08AFA3B
:10063000626800EB8000930000EB8000B0FBF3F3F6
:10064000A7FB03235B0908FB13631B013233A7FBE2
:1006500003235B0903F0F00601F074FA626800EB13
:100660008000930000EB8000B0FBF3F901F06AFA20
:10067000626800EB800303EB83039200B3FBF2F3A9
:10068000A7FB03235B0908FB13931B013233A7FB72
:100690000323C3F34313226833432B449360BDE821
:1006A000F88301F05FFA636800EB800000EB8000E4
:1006B0009B00B0FBF3F31F4F4FF06408A7FB03232D
:1006C0005B091D0101F04EFA636800EB80009B009E
:1006D00000EB8000B0FBF3F601F044FA626800EB37
:1006E0008000930000EB8000B0FBF3F3A7FB032333
:1006F0005B0908FB13631B013233A7FB03235B0970
:1007000003F0F00601F02EFA626800EB800093001F
:1007100000EB8000B0FBF3F901F024FA626800EB13
:10072000800000EB80009300B0FBF3F3A8E700BF6C
:10073000003801401F85EB512DE9F04107460E4678
:1007400090461D463B6801E06A1C06D11C6836EAEB
:100750000402F9D10020BDE8F08135B1FFF776FD44
:10076000A0EB08008542EDD23B6820210024DA6826
:10077000032022F4D072DA605A6922F001025A6131
:1007800087F8391087F8384087F83A10E3E700BF58
:10079000704700BF60B338B590F83930044603F0B5
:1007A000FF0203B32423226884F83930D36820463B
:1007B00023F40053D360FFF7FFFE002520212368B8
:1007C00028461A6922F490421A615A6922F02A02D4
:1007D0005A61DA6842F40052DA60E56384F839104D
:1007E00084F83A1038BD80F83820FFF7D1FFD9E7F8
:1007F0000120704780B338B590F83930044603F0D3
:10080000FF0223B32423226884F83930D3682046BA
:1008100023F40053D360FFF7CFFE00252021236887
:1008200028461A6922F490421A615A6922F022027B
:100830005A615A6942F008025A61DA6842F4005279
:10084000DA60E56384F8391084F83A1038BD80F82E
:100850003820FFF79DFFD5E701207047002836D0EC
:10086000F8B590F839300D46044603F0FF024BB35B
:10087000242300272026226884F83930D3682046B4
:1008800023F40053D360FFF797FE236838461A69B4
:1008900022F400621A615A6922F02A025A611A6926
:1008A00042F480421A611A6922F020022A431A6136
:1008B000DA6842F40052DA60E76384F8396084F859
:1008C0003A60F8BD80F83820FFF762FFD0E70120DA
:1008D000704700BF00283AD0F8B590F83930154677
:1008E0000E46044603F0FF0263B32423226884F813
:1008F0003930D368204623F40053D360FFF75CFE01
:1009000020274FF0000C23681A6922F490421A61E4
:100910005A6922F02A025A61186920F00F00304308
:100920001861D968604621F400612943D960DA680A
:1009300042F40052DA60C4F83CC084F8397084F89C
:100940003A70F8BD80F83820FFF722FFCDE701208C
:10095000704700BF704700BF80B1242310B580F8F6
:1009600039300446FFF7F6FF0023E36384F838309C
:1009700084F8393084F83A30184610BD01207047A9
:100980002DE9F041044690F83900202854D10E4654
:1009900000294CD01546002A49D01F4694F838301B
:1009A000012B49D0212300210122E16384F8382062
:1009B00084F83930FFF74AFCE584E38C80469BB22B
:1009C000A5845BB926E0FFF7B7FE002837D116F8FB
:1009D000012B23685A60E18C89B2D9B1E58CA368F8
:1009E000013DADB2B3F5805F42463B464FF080011A
:1009F0002046E584E7D1FFF79FFE00BB33882168DE
:100A00002269C3F308034B60A2B9E18C023689B2B4
:100A10000029E3D13B46424640212046FFF78CFEA9
:100A200068B9202384F8380084F8393000E00120C8
:100A3000BDE8F0810136CEE70220BDE8F081032059
:100A4000BDE8F0812DE9F041044690F83A002028F5
:100A50005CD10E46002949D01546002A46D01F46D3
:100A600094F83830012B51D0222300210122E16378
:100A700084F8382084F83A30FFF7E8FBE585E38D09
:100A800080469BB2A5856BB928E0FFF755FE00288C
:100A90003FD123696BBB23685B6806F8013BE18D9E
:100AA00089B2D9B1E58DA368013DADB2B3F5805FE0
:100AB00042463B464FF020012046E585E5D1FFF751
:100AC0003BFE30BB2369DBB923685B68C3F30803D3
:100AD00026F8023BE18D89B20029E3D120230020D2
:100AE00084F83A3084F83800BDE8F0810120BDE890
:100AF000F08123685B6803F07F0306F8013BCEE7D3
:100B000023685B68DBB226F8013BC8E70220BDE83A
:100B1000F0810320BDE8F08190F83930202B1AD104
:100B2000B9B1B2B190F83830012B14D030B40023F1
:100B300021240568C28480F83830C36380F83940C6
:100B4000EC68016244F0800482841846EC6030BC9A
:100B50007047012070470220704700BF90F83A307C
:100B6000202B22D1F9B1F2B190F83830012B1CD0F2
:100B700030B4002322250468C28580F83830C3636E
:100B800080F83A50E568828545F480758162E560B9
:100B90006269184642F001026261E36843F0200393
:100BA000E36030BC7047012070470220704700BFEF
:100BB000F8B5044690F8390020282BD141B33AB358
:100BC00094F83800012825D0012600252127E28449
:100BD000A28484F83860206B13460F4E0F4AE563F9
:100BE000216284F839708662C2620D4E22684563C4
:100BF0000663043203F0F8F86FF0400223682846D9
:100C00001A6084F838505A6942F080025A61F8BD7F
:100C10000120F8BD0220F8BDE90E0008190F0008F8
:100C2000FD0F000890F83A30202B3CD1002938D035
:100C3000002A36D0F0B590F838300446012B83B046
:100C400033D0012600252227406B1346A162A285DE
:100C500084F838600A46164E1649E56384F83A70FF
:100C60008662C162144E216845630663043103F055
:100C7000BBF82846236801951A6801925A6884F8DF
:100C800038500192019ADA6842F48072DA605A6947
:100C900042F001025A615A6942F040025A6103B0BF
:100CA000F0BD0120704702207047022003B0F0BD64
:100CB000290F0008ED0F0008FD0F000890F83830EC
:100CC000012B30D00122036880F83820596990F850
:100CD0003920212A09D0596990F83A20222A0FD0C8
:100CE000002380F83830184670470906F3D55A6952
:100CF00022F080025A61596990F83A20222AEFD1F5
:100D00004A06EDD5DA6822F48072DA605A6922F078
:100D100001025A615A6922F040025A61002380F8A8
:100D20003830184670470220704700BF90F83830BE
:100D3000012B2FD0012290F8393080F83820212B58
:100D400004D10268536943F08003536190F83A304C
:100D5000222B04D0002380F8383018467047002238
:100D6000036882B001921A6801925A680192019A4E
:100D7000DA6842F48072DA605A6942F001025A611C
:100D80005A6942F040025A61002380F83830184610
:100D900002B070470220704710B5036804465969D5
:100DA00090F83920212A06D0596994F83A20222A4D
:100DB00018D0002010BD0906F6D55A69006B22F044
:100DC00080025A6110B103F051F823682021DA68DB
:100DD00022F0C002DA6084F83910596994F83A2098
:100DE000222AE6D14A06E4D55A69606B22F0400215
:100DF0005A6110B103F03AF823682021DA68002024
:100E000022F49072DA605A6922F001025A6184F881
:100E10003A1010BD036810B5DA68044622F4F07287
:100E2000DA605A6922F001025A615A6911060AD53C
:100E30005A69006B22F080025A6120B1002343639B
:100E400003F014F823685A69520609D55A69606B91
:100E500022F040025A6118B10023436303F006F800
:100E600000202023E084E085E06384F83A3084F8B1
:100E7000393010BD036810B5DA68044622F0C002AC
:100E8000DA605A69120609D55A69006B22F08002AD
:100E90005A6118B10023436302F0E8FF00202023C9
:100EA000E08484F8393010BD036810B5DA68044670
:100EB00022F49072DA605A6922F001025A615A698A
:100EC000520609D55A69406B22F040025A6118B1A6
:100ED0000023436302F0CAFF00202023E08584F84A
:100EE0003A3010BD704700BF08B50368406A1B6800
:100EF00013F020030AD10268C384536923F08003EE
:100F00005361D36843F04003D36008BDFFF7EAFFA5
:100F100008BD00BF704700BF08B5406AFFF7FAFF81
:100F200008BD00BF704700BF08B50368406A1B6872
:100F300013F0200310D120210268C385D36823F465
:100F40008073D360536923F001035361536923F025
:100F50004003536180F83A10FFF7E4FF08BD00BF7B
:100F600008B58368B3F5805F17D0036973B1036870
:100F7000826A5B68511C03F07F0381621370C38D2A
:100F8000013B9BB2C3859BB1002008BD0268836A08
:100F90005268591C81621A70F1E70269836ADAB9F2
:100FA00002685268C2F3080223F8022B8362E6E764
:100FB00020210368DA6822F02002DA60DA6822F47D
:100FC0008072DA605A6922F001025A6180F83A10A0
:100FD000FFF7A8FF002008BD02685268D2B223F8CC
:100FE000012B8362CBE700BF704700BF08B5406AA2
:100FF000FFF7FAFF08BD00BF704700BF08B5406AA1
:101000000368596990F83920212A0BD0596990F862
:101010003A20222A16D0C36B43F01003C363FFF7B4
:10102000EBFF08BD0906F1D500222021C284DA6851
:1010300022F0C002DA6080F83910596990F83A203D
:10104000222AE8D14A06E6D500222021C285DA68A4
:1010500022F49072DA605A6922F001025A6180F833
:101060003A10D8E7036870B51A6804461607DD68B9
:1010700059690CD1960601D5A9064DD4100601D5A3
:10108000290650D4560601D5680668D470BD01F013
:10109000010105F490700843F0D0D60705D5E805A6
:1010A00003D5E06B40F00100E063560729D561B13C
:1010B000E16B900741F00201E16340F18280E16B56
:1010C00041F00401E163110721D4E16B0029DDD077
:1010D000920609D5AE0607D594F83A20222A03D104
:1010E0002046FFF73DFF23685A69E56B02F0400296
:1010F00005F0080515433DD12046FFF77DFFE56368
:1011000070BD960756D41007DFD50029DDD0E16BFE
:1011100041F00801E163D8E790F83A30222BB5D1CD
:10112000BDE870401CE794F83920212AAED1A268AE
:10113000B2F5805F226A47D0511C216212785A6052
:10114000E28C013A92B2E284002A9FD1DA6822F05E
:101150008002DA60DA6842F04002DA6070BD202175
:10116000DA68204622F04002DA6084F83910FFF78E
:10117000B9FE70BD2021DA6822F49072DA605A69F3
:1011800022F001025A6184F83A105A69550614D5C2
:101190005A69606B22F040025A6170B1104B436390
:1011A00002F07AFE00283FF471AF606BBDE870403A
:1011B000436B1847002982D187E72046FFF71CFFC1
:1011C00070BD1107A3D480E711882069C1F308011D
:1011D000596010B902322262B2E701322262AFE7EF
:1011E000E511000808B50023406AC385C384FFF7F2
:1011F00003FF08BD704700BF036810B5DA680446F6
:1012000022F4F072006BDA605A6922F001025A612E
:1012100028B15A6912F0800218BF214A4263616BFB
:1012200029B15A6912F0400218BF1E4A4A635A692E
:1012300012060BD55A6922F080025A6130B102F0D1
:101240002BFE00B30021226B236851635A695206BA
:101250000BD55A69606B22F040025A6128B102F046
:101260001BFE70B10022636B5A6300232022E384CB
:101270002046E385E36384F8392084F83A20FFF7B9
:10128000B9FF002010BD23685A695106F9D55A6983
:10129000606B22F040025A610028E0D1F1E700BF04
:1012A000D5120008A91200080021406A08B5D0E94B
:1012B0000C32516313B15B6B03B108BD00232022D4
:1012C000C384C385C36380F8392080F83A20FFF7D0
:1012D00091FF08BD0021406A08B5D0E90C23516395
:1012E00013B15B6B03B108BD00232022C384C38507
:1012F000C36380F8392080F83A20FFF77BFF08BDF0
:10130000704700BF036810B5DA68044622F0C002D7
:10131000DA605A6912F0800218D05A69016B22F023
:1013200080025A6151B10D4B08464B6302F0B4FD87
:1013300010B1206B436B9847002010BD2023C1845F
:1013400080F83930FFF7DCFF002010BD2023C28475
:1013500080F83930FFF7D4FF002010BD611300087A
:1013600008B500222023406AC28480F83930FFF794
:10137000C7FF08BD704700BF036810B5DA680446B0
:1013800022F49072DA605A6922F001025A615A69B5
:1013900012F0400218D05A69416B22F040025A61A3
:1013A00051B10D4B08464B6302F076FD10B1606BF6
:1013B000436B9847002010BD2023C18580F83A3048
:1013C000FFF7D8FF002010BD2023C28580F83A30F7
:1013D000FFF7D0FF002010BDDD13000808B5002284
:1013E0002023406AC28580F83A30FFF7C3FF08BD6A
:1013F00090F83820012A12D0242230B40346202548
:101400000021046880F83920E268084642F00102B1
:10141000E26083F8395083F8381030BC70470220FE
:10142000704700BF90F83820012A12D0242230B42F
:10143000034620250021046880F83920E268084628
:1014400042F00202E26083F8395083F8381030BC71
:1014500070470220704700BF90F83820012A12D050
:10146000242230B4034620250021046880F8392066
:10147000E268084622F00202E26083F8395083F8FD
:10148000381030BC70470220704700BF90F83820F9
:10149000012A14D0242230B40346202500210468F8
:1014A00080F83920E268084622F00C0242F0080277
:1014B000E26083F8395083F8381030BC704702205E
:1014C000704700BF90F83820012A14D0242230B48D
:1014D000034620250021046880F83920E268084688
:1014E00022F00C0242F00402E26083F8395083F8E3
:1014F000381030BC70470220704700BF90F8392088
:1015000090F83A0010437047C06B704700210E4BB3
:1015100010B45A680D4C22F003025A601A680C4845
:1015200022F0847222F480321A601A6822F4802237
:101530001A6059601A6822F0F80242F080021A60BC
:101540009960046010BC70470010024000127A00DD
:10155000040000202DE9F04103680446DD0782B055
:1015600030D5AA494A6802F00C02042A00F0D9805A
:101570004A6802F00C02082A00F0CF806368B3F5D5
:10158000803F00F00E81002B00F02681B3F5A02FE4
:1015900000F0B3819D4B1A6822F480321A601A68F9
:1015A00022F480221A60FEF751FE984E054605E0AF
:1015B000FEF74CFE401B642800F20A8133689A0350
:1015C000F6D523689F0728D5904A516811F00C0F73
:1015D00000F0B580516801F00C01082900F0AB80E3
:1015E0002369002B00F03F810122894B874E1A604E
:1015F000FEF72CFE054605E0FEF728FE401B0228FC
:1016000000F2E68033689807F6D53368626923F004
:10161000F80343EAC203336023681A0722D5A3699B
:10162000002B00F0978001227A4B784E1A60FEF76B
:101630000DFE054605E0FEF709FE401B022800F2FC
:10164000C780736A9B07F6D5734B744A1B68A2FB6D
:1016500003235B0A019300BF019B5A1E0192002BDA
:10166000F9D123685D0738D5684BDA69D00040F1BD
:10167000818000256A4B1A68D10540F19880E368A3
:10168000012B0FD0002B00F0CF80052B5F4B1A6A87
:1016900000F0FA8022F001021A621A6A22F00402B3
:1016A0001A6204E0594A136A43F001031362FEF719
:1016B000CDFD41F288380646544F05E0FEF7C6FDE1
:1016C000801B404500F284803B6A9B07F6D525B11C
:1016D0004E4AD36923F08053D361E369CBB14B4DBC
:1016E0006A6802F00C02082A30D0022B4FF0000288
:1016F0004C4B00F0D1801A60FEF7A8FD2C46054641
:1017000004E0FEF7A3FD401B022861D823689B017B
:10171000F7D4002002B0BDE8F0814A68D0037FF51D
:101720002DAF3A4A126891037FF54CAF6268002AE8
:101730007FF448AF0AE05268D6033FF551AF334A11
:101740001268950721D52269012A1ED0012002B016
:10175000BDE8F0812F4A2D4E1360FEF777FD054658
:1017600004E0FEF773FD401B022831D8736A9F071F
:10177000F7D476E7DA69012542F08052DA61DB6955
:1017800003F080530093009B74E7204960690A6866
:1017900022F0F80242EAC0020A601A077FF562AF3F
:1017A0003DE71A4A136843F480331360FBE61A6876
:1017B0001F4642F480721A60FEF748FD06463B68F9
:1017C000DA053FF55CAFFEF741FD801B6428F6D9D2
:1017D000032002B0BDE8F08103F1804303F5043338
:1017E0001A681E4622F480321A601A6822F4802297
:1017F0001A60FEF72BFD054604E0FEF727FD401BAF
:101800006428E5D833689B03F7D4DAE60010024079
:10181000000042428004424204000020D34D621086
:10182000007000406000424203F1804303F504333E
:101830001A6A1F4622F001021A621A6A41F28838B7
:1018400022F004021A62FEF701FD064604E0FEF7EC
:10185000FDFC801B4045BBD83B6A9807F7D4002DA0
:101860003FF43BAF34E72B4A2B4E1360FEF7EEFC00
:10187000054604E0FEF7EAFC401B0228A8D83368BE
:101880009907F7D42368C8E642F004021A621A6A7C
:1018900042F001021A620AE71A60FEF7D7FC064618
:1018A00004E0FEF7D3FC801B022891D82B68990135
:1018B000F7D4236AB3F5803F05D16A68A16822F4A2
:1018C00000320A436A600120134D616A6A680B4363
:1018D00022F47412114913436B600860FEF7B6FCE2
:1018E0002C46054605E0FEF7B1FC401B02283FF6FA
:1018F0006FAF23689A01F6D50BE703F18043A3F598
:101900003C331A6842F480221A601A6842F480322A
:101910001A6048E600004242001002406000424265
:101920000022032070B54FF48073022686B0CDE903
:1019300004200C4C03960293A3690D4643F0040364
:10194000A361A369084803F00403019302A9019B62
:1019500002F008F8636823F0E0632B43636006B08D
:1019600070BD00BF00100240000801400122014B81
:101970001A6070474C0042420022014B1A607047C7
:101980004C00424240F2012286B0154B0DF1180C7A
:10199000ADF804200FCB0CE90F00124A536803F096
:1019A0000C01082902D0104806B07047C3F38341E8
:1019B0006144DB0311F8100C0CD553680A4AC3F3D9
:1019C0004043634413F8143CB2FBF3F300FB03F011
:1019D00006B07047054B03FB00F006B0704700BF30
:1019E000009600080010024000127A0000093D0035
:1019F0004D4A2DE9F04113680C4603F007038B4272
:101A000005460CD2136823F007030B4313601368D9
:101A100003F007038B4202D00120BDE8F0812B6860
:101A20009A0706D54149A8684A6822F0F0020243A5
:101A30004A60DF0722D56A683C4B012A1B686CD0DC
:101A4000022A67D09907E7D5384E41F28838736883
:101A500023F0030313437360FEF7F8FB6B6807463C
:101A6000012B46D0022B05D14EE0FEF7EFFBC31B46
:101A7000434555D8736813F00C0FF6D12A4A136802
:101A800003F00703A34209D9136823F00703234394
:101A90001360136803F00703A342BDD12B685A07F4
:101AA00006D52249E8684A6822F4E06202434A60A7
:101AB0001B0707D51D4A2969536823F4605343EA7D
:101AC000C1035360FFF75EFF0346184A1848526887
:101AD0001849C2F30312825C0020D3400B60FEF76A
:101AE00085FB0020BDE8F081FEF7B0FBC01B404540
:101AF00016D8736803F00C03042BF5D1BEE7FEF78C
:101B0000A5FBC01B40450BD8736803F00C03082BE2
:101B1000F5D1B3E7980197D47EE79E0394D47BE791
:101B20000320BDE8F08100BF002002400010024009
:101B3000C895000804000020014B1868704700BFDA
:101B400004000020044B05495B68054AC3F30223E7
:101B5000CB5C1068D840704700100240D895000850
:101B600004000020044B05495B68054AC3F3C22307
:101B7000CB5C1068D840704700100240D895000830
:101B8000040000200F221F4B02601A68510329D560
:101B90004FF4A02343601B4B5A6802F4003282606A
:101BA0001A6802F0010202611A68C2F3C4024261BB
:101BB0001A6A52071ED50523C360124B5A6A02F0F7
:101BC000010282611A6812F0807F14BF0222012292
:101BD000C2615A6802F4803202625B6803F47013D7
:101BE000436270471B6813F4803318BF4FF480338F
:101BF0004360D0E71B6A13F0010318BF0123C360E1
:101C0000DBE700BF001002400F220D4B02605A6854
:101C100010B402F0030242605A680A4C02F0F0026B
:101C200082605A6802F4E062C2605B68DB0803F419
:101C3000E0630361236810BC03F007030B60704787
:101C40000010024000200240704700BF08B5054B5D
:101C50009B681B0600D408BDFFF7F6FF8022024BED
:101C60001A7008BD001002400A1002404FF6FF0132
:101C7000064A0302D06803F4E0630840034343F0DC
:101C8000BF6343F40033D360704700BF00ED00E052
:101C9000194B30B4DB68C3F30223C3F10705042DED
:101CA00003F1040428BF0425062C19D94FF0FF3492
:101CB000033B9C4022EA04024FF0FF34AC4021EA8F
:101CC00004019940002841EA02010CDB090100F1FE
:101CD0006040C9B200F5614080F8001330BC704725
:101CE00000221346E8E7054B00F00F000901C9B2D6
:101CF0000344197630BC704700ED00E0FCEC00E0D6
:101D0000012300F01F01034A40098B4042F82030B4
:101D1000704700BF00E100E001224309044900F0E0
:101D20001F00203302FA00F041F82300704700BF83
:101D300000E100E0BFF34F8F0549064BCA6802F48B
:101D4000E0621343CB60BFF34F8F00BFFDE700BFDE
:101D500000ED00E00400FA050138B0F1807F0DD2FB
:101D600030B4F02500220721054B064C586084F85A
:101D70002350104630BC9A601960704701207047AC
:101D800010E000E000ED00E0024BD868C0F3022054
:101D9000704700BF00ED00E0002830B423DB00F105
:101DA000604000F5614090F80003000901F0070170
:101DB000C1F10705042D01F1040428BF0425062CF8
:101DC0000FD94FF0FF3403398C4020EA0404C84097
:101DD0004FF0FF31A94020EA010010601C6030BCC8
:101DE00070470024F4E7034C00F00F000444207E09
:101DF0000009DBE7FCEC00E001224309044900F0A4
:101E00001F00403302FA00F041F82300704700BF82
:101E100000E100E0054A4309403352F8233000F066
:101E20001F0023FA00F000F00100704700E100E01D
:101E300001224309044900F01F00603302FA00F058
:101E400041F82300704700BF00E100E0054A430964
:101E5000803352F8233000F01F0023FA00F000F026
:101E60000100704700E100E0044A042813680CBF39
:101E700043F0040323F004031360704710E000E014
:101E8000704700BF08B505F015FA08BD20BF00BFB8
:101E9000704700BF044B1A6942F080521A611A69F8
:101EA00022F080521A617047001002400122014B5B
:101EB0001A60704720000E420022014B1A607047E2
:101EC00020000E421B4910B40A68046822F0E002A8
:101ED000194B22430A605A6822F480325A601A6809
:101EE00022F480321A60DA6822F48032DA609A686A
:101EF00022F480329A604268D40303D5196841F411
:101F000080311960900304D50B494B6843F480334A
:101F10004B60D10704D508498B6843F480338B604C
:101F2000930704D5044AD36843F48033D36010BCCC
:101F3000704700BF00700040000401400122014BC7
:101F40001A60704710000E420022014B1A60704761
:101F500010000E4290FAA0F0B0FA80F00122024B7D
:101F600003449B001A6070472080831090FAA0F011
:101F7000B0FA80F00022024B03449B001A607047C5
:101F800020808310064A0129136923F0040313619A
:101F900003D040BF20BF20BF704730BF704700BF95
:101FA00000ED00E00F4A38B514680F4D24F002042C
:101FB00014601368012923F0010343EA000313604E
:101FC0002B6943F004032B6106D130BF064A136925
:101FD00023F00403136138BD40BFFFF757FFFFF73D
:101FE00055FFF3E70070004000ED00E00549064AA8
:101FF0000B6843F002030B60136943F004031361A1
:1020000030BF70470070004000ED00E0024A1369E5
:1020100043F002031361704700ED00E0024A1369C8
:1020200023F002031361704700ED00E0024A1369D8
:1020300043F010031361704700ED00E0024A13699A
:1020400023F010031361704700ED00E0704700BFFC
:1020500010B5054C6369DB0300D410BDFFF7F6FF34
:102060004FF48033636110BD00040140704700BF2E
:10207000002857D0F0B590F83D300E46044689B0A0
:1020800003F0FF02002B48D00223214684F83D30A4
:1020900051F8040B03F09CFFB368316820680322F9
:1020A00004F096F900254FF0700C2068F168826901
:1020B000776822F00C0282618369CDF804C03B434B
:1020C0008361436843F0800343608368029123F097
:1020D00070038360836801A943F0400383608368D1
:1020E00023F007038360836843F004038360CDE932
:1020F0000555CDE90355079504F090F801212846D0
:1021000023685A6822F070025A605A6842F05002FE
:102110005A6084F83D1009B0F0BD80F83C20FFF70C
:10212000A5FFB1E701207047704700BF022141F2CF
:102130001112036810B580F83D10196A0446114267
:1021400008D140F24442196A114203D11A6822F0C0
:1021500001021A602046FFF7E7FF002084F83D00E7
:1021600084F83C0010BD00BF10B5044601220021D8
:10217000006804F06FFA22680020136843F001033E
:10218000136010BD002210B504461146006804F02B
:1021900061FA41F211122368196A114208D140F222
:1021A0004442196A114203D11A6822F001021A60EE
:1021B000002010BD10B5044600680122C36800214C
:1021C00043F00203C36004F045FA2268002013685C
:1021D00043F00103136010BD002210B50446114600
:1021E000006804F037FA41F211112368DA6822F02E
:1021F0000202DA601A6A0A4208D140F24442196ABD
:10220000114203D11A6822F001021A60002010BDA9
:10221000F8B590F83D600446022EF0B226D00D4687
:1022200094F83D1017460129C8B203D1FDB102232D
:1022300084F83D3001220021206804F00BFA0D4E95
:102240002168606ADFF830C03B462A46C0F828C0E3
:102250000663343101F0C8FD00202368DA6842F4D7
:102260000072DA601A6842F001021A60F8BD002AB2
:10227000DDD0F8BD915F0008615D0008002210B557
:1022800004461146006804F0E5F941F21111236893
:10229000DA6822F40072DA601A6A0A4208D140F25F
:1022A0004442196A114203D11A6822F001021A60ED
:1022B000002010BD0422036802FA01F11A6A00200E
:1022C00022EA01021A621A6A114319625A6C42F434
:1022D00000425A641A6842F001021A60704700BF57
:1022E000042210B441F2111403688A40196A21EAE9
:1022F000020119621A6A1A621A6A224204D140F271
:102300004442196A114210D041F21112196A114265
:1023100008D140F24442196A114203D11A6822F0EE
:1023200001021A60002010BC70475A6C22F400426F
:102330005A64E9E70C2908D8DFE801F02607070707
:102340002C07070732070707200003680422D86814
:1023500002FA01F140F08000D8601A6A002022EAF7
:1023600001021A621A6A114319625A6C42F400425D
:102370005A641A6842F001021A6070470368DA680A
:1023800042F01002DA60E1E70368DA6842F0020224
:10239000DA60DBE70368DA6842F00402DA60D5E766
:1023A0000368DA6842F00802DA60CFE710B40C295B
:1023B00008D8DFE801F04B070707450707073F0785
:1023C000070739000368042040F244441A6A00FAFF
:1023D00001F122EA010119621A6A1A621A6A22429A
:1023E00003D1DA6822F08002DA6041F21112196A30
:1023F000114208D140F24442196A114203D15A6C89
:1024000022F400425A6441F21112196A114208D1B1
:1024100040F24442196A114203D11A6822F00102C3
:102420001A60002010BC70470368DA6822F01002BE
:10243000DA60C8E70368DA6822F00802DA60C2E707
:102440000368DA6822F00402DA60BCE70368DA683D
:1024500022F00202DA60B6E770B590F83D600446FB
:10246000022EF0B225D094F83D600D46012E1146A3
:10247000F0B21FD00C2D08D8DFE805F022070707BF
:1024800031070707400707074F0023680422002091
:102490001C6A02FA05F124EA01041C621A6A11435B
:1024A00019625A6C42F400425A641A6842F00102FE
:1024B0001A6070BD002A3FD0022284F83D20D9E77F
:1024C000606A1F4A1F4E826222680663343201F03E
:1024D0008BFC2368DA6842F40072DA60D6E7A06AFF
:1024E000174A184E826222680663383201F07CFC7B
:1024F0002368DA6842F48062DA60C7E7E06A104A6B
:10250000104E8262226806633C3201F06DFC236843
:10251000DA6842F40062DA60B8E7206B084A094ED4
:10252000826222680663403201F05EFC2368DA684A
:1025300042F48052DA60A9E7002BBDD070BD00BF25
:10254000C55D0008915F000870B406460C2908D8E4
:10255000DFE801F0450707073F07070739070707C7
:1025600033000368042441F211151A6A04FA01F1D8
:1025700022EA010119621A6A1A621A6A2A4208D109
:1025800040F24442196A114203D15A6C22F40042CB
:102590005A6441F21112196A114208D140F24442C0
:1025A000196A114203D11A6822F001021A6001234C
:1025B00086F83D30002070BC70470368DA6822F46A
:1025C0008052DA60CEE70368DA6822F40062DA60EB
:1025D000C8E70368DA6822F48062DA60C2E7036859
:1025E000DA6822F40072DA60BCE700BFFFF762BE6F
:1025F000FFF776BEFFF79EBEFFF7D8BEFFF72CBFF2
:10260000FFF7A2BF0422036802FA01F11A6A002050
:1026100022EA01021A621A6A114319625A6C42F4E0
:1026200000425A64704700BFFFF75ABE0422036895
:1026300002FA01F1DA68002042F00202DA60DA6898
:1026400042F00402DA601A6A22EA01021A621A6A85
:10265000114319625A6C42F400425A64704700BF39
:10266000042210B441F2111403688A40D96821F0A1
:102670000201D960D96821F00401D960196A21EA00
:10268000020119621A6A1A621A6A224204D140F2DD
:102690004442196A114210D041F21112196A1142D2
:1026A00008D140F24442196A114203D11A6822F05B
:1026B00001021A60002010BC70475A6C22F40042DC
:1026C0005A64E9E790F83C30012B20D0012330B464
:1026D00080F83C3031F030030446036806D1986836
:1026E00020F070009860986801439960002559684F
:1026F000284641F001015960596821F004015960F0
:1027000059680A435A6084F83C5030BC7047022034
:10271000704700BF90F83C30012B24D0012330B427
:1027200080F83C3031F030030446036806D19868E5
:1027300020F07000986098680143996000255968FE
:10274000284641F001015960596821F0040159609F
:1027500059680A435A60DA6842F02002DA6084F865
:102760003C5030BC70470220704700BF90F83C30AE
:10277000012B29D0012330B480F83C3031F03003F4
:102780000446036806D1986820F070009860986845
:102790000143996000255968606B41F0010159605F
:1027A000596821F00401596059680A435A60074981
:1027B000DA688162064942F400520163DA6084F803
:1027C0003C50284630BC70470220704779280008EA
:1027D000915F000890F83C30012B22D00246D1E9ED
:1027E000020310B4002423F440730343486823F425
:1027F00080630343086823F400630343086923F4F8
:1028000080530343486923F400530343886923F446
:102810004043116803434B6482F83C40204610BC9F
:1028200070470220704700BF90F83C30012B1ED04B
:1028300002460220F0B400250126136882F83D000C
:102840005C680F6824F070045C6058684C6838431A
:102850005860986820F08000986099682846214365
:10286000996082F83D6082F83C50F0BC70470220CD
:10287000704700BF704700BF08B50123406A80F869
:102880003D30FFF7F7FF08BD704700BF90F83D00EF
:10289000704700BF124BDB6813F0100305D0102304
:1028A0001049CA6942F00202CA610D4AD268500753
:1028B00006D50C4943F00403CA6942F00102CA611B
:1028C000074AD169C90708D50648C16941F0040122
:1028D000C161D16921F00101D161014AD360704722
:1028E00000200240F81000202DE970089346184A95
:1028F000167E012E27D09C460123164E137633698F
:10290000012843F4A05333619160C2E904BC12D0A2
:10291000022814D0052004231070536000200D4DB0
:10292000D0612B691FFA8BF443F001032B610C80FB
:10293000BDE870087047032313705060EEE704236E
:1029400013705060EAE70220BDE87008704700BFCE
:10295000F810002000200240704700BF704700BF01
:10296000F8B5464BDA68D10602D4DB685A0722D59F
:102970004FF0FF33424CA568A360FFF78BFF28465A
:10298000FFF7ECFF002323703C4DEB689B0603D55B
:102990002023EB60237883B9237803F0FF014BB940
:1029A000364B1A6922F007021A611A6922F4A05202
:1029B0001A612176F8BD324CE6E72378012B23D04B
:1029C0002378022B4BD06368013B63606368002B64
:1029D0002DD00027A1680231A160A668D4E90401C6
:1029E000020C0B0C42EA0142C4E904232B6923F0D8
:1029F00001032B61D4E90412E7612B698AB243F029
:102A000001032B613280C7E76368013B6360636841
:102A1000F3B1A068FFF7A0FFA06800F58060A06098
:102A20002B6923F002032B6101F0E6FEB4E7237863
:102A3000032B1ED02378A068042B0CBF0238063865
:102A4000FFF78AFF4FF0FF320023A2602370A3E755
:102A50004FF0FF30A0602370FFF77EFF9CE72B69EB
:102A6000002023F004032B61FFF776FF002323707F
:102A700092E7A068FFF770FFE4E700BF0020024084
:102A8000F8100020054B1A69120605D50449054ABD
:102A9000596000205A6070470120704700200240B2
:102AA00023016745AB89EFCD034A0020136943F04A
:102AB00080031361704700BF00200240054B186976
:102AC00010F4007004D10449044A99609A60704778
:102AD000012070470020024023016745AB89EFCDFC
:102AE000034A0020136923F400731361704700BF89
:102AF00000200240FFF71EB9014BD869704700BFA4
:102B0000F810002070B50446FDF7A0FB124D0646F4
:102B100001E0621C17D1EB68DB07FAD4EB6898067A
:102B200044BF2023EB600C4BDA68D10607D4DA6986
:102B3000D20704D4D86810F0040000D170BDFFF7AC
:102B4000A9FE012070BD24B1FDF780FB801BA042CF
:102B5000E1D9032070BD00BF002002402DE9F84FED
:102B6000244F3C7E012C42D01D46012306464CF2E8
:102B700050308B4690463B76FFF7C4FF98BB012E42
:102B800003D0022E0CBF022604264FF0000ADFF805
:102B900068900BEB46060023CAF12002FB6105FAA0
:102BA00002F228FA0AF0AAF12001104325FA01F1F5
:102BB000D9F81020084342F0010284B2C9F810206D
:102BC0004CF25030ABF80040FFF79CFFD9F81020D2
:102BD0000BF1020B22F001020AF1100AC9F81020D1
:102BE00008B9B345D7D100233B76BDE8F88F022062
:102BF000BDE8F88FF8100020002002402DE9F041D8
:102C00000446006882B0C3072AD5394BDA69D70079
:102C10003DD5384B00251A68D60546D5344E336A63
:102C200013F440730FD0616801F440729A420BD0E4
:102C300001270020336A304A23F440711760106086
:102C40003162D90745D46168294A136A23F4407375
:102C50000B4313621DB1D36923F08053D361206805
:102C6000830706D52249A3684A6822F440421A43E2
:102C70004A6010F0100007D000201D4AE168536838
:102C800023F480030B43536002B0BDE8F081DA699E
:102C9000012542F08052DA61DB6903F08053019331
:102CA000019B144B1A68D605B8D41A681F4642F423
:102CB00080721A60FDF7CAFA06463B68D805ADD4A3
:102CC000FDF7C4FA831B642BF7D9032002B0BDE8DB
:102CD000F081FDF7BBFA41F28838074604E0FDF7C2
:102CE000B5FAC01B4045F0D8336A9A07F7D5AAE772
:102CF0000010024000700040400442421321074B84
:102D00001A6A02F4407242605A68016002F440425A
:102D100082605B6803F48003C36070470010024068
:102D200010B5044640F2012286B0344B0DF1180C68
:102D3000022CADF804200FCB0CE90F0006D0102CAC
:102D400028D0012C0ED0002006B010BDFEF70AFFDF
:102D50002B4B5B68C3F3813301335B00B0FBF3F0B3
:102D600006B010BD40F2023225490B6A1A40B2F596
:102D7000817F33D003F44073B3F5007F31D0B3F5D6
:102D8000407FE0D14FF22443086810F4003018BFB0
:102D90001846D9E71A4B5A68186810F08070D3D0DB
:102DA000C2F3834106A80144D20311F8100C20D5C8
:102DB0005B6806A9C3F340430B44124A13F8143C62
:102DC000B2FBF3F300FB03F00D4B5B685B02BBD47B
:102DD0000D4B4000A3FB00304008B5E74FF4004026
:102DE000B2E749F64043486A10F0020018BF18469F
:102DF000AAE7064B03FB00F0E6E700BF00960008D9
:102E00000010024000127A00ABAAAAAA00093D00F5
:102E1000022930B400F5FA6322D81A4C01EB4105BF
:102E2000C1EBC501A4FB0141174C00F2CF70043285
:102E3000A4FB00541A4402EB510101EB900101EB99
:102E4000D4111248A1EB5411A0FB013030BC0B1A75
:102E500000EB53008008C0EBC000081AC0B27047F6
:102E6000084801EB4104C1EBC401A0FB010102329F
:102E7000054C1A4402EB5101A4FB030401EB93013E
:102E8000DDE700BF398EE3381F85EB5125499224D9
:102E900038B50446FDF7DAF9054605E0FDF7D6F941
:102EA000401BB0F57A7F09D823685A689206F5D599
:102EB0005A68002042F010025A6038BD032038BD25
:102EC000026838B55368044623F010035360FDF7D9
:102ED000BDF9054605E0FDF7B9F9401BB0F57A7F6D
:102EE00005D823685B689B06F5D5002038BD032014
:102EF00038BD00BF38B50C460546FFF7C9FF08B11D
:102F0000012038BD2B68220CA4B29A612846DC61EE
:102F1000FFF7D6FF003818BF012038BD38B50C4682
:102F20000546FFF7B5FF08B1012038BD2B68220C1C
:102F3000A4B21A6228465C62FFF7C2FF003818BFCD
:102F4000012038BD2DE9F84F07460068456815F0A7
:102F5000040540F088800C4616468169C369826981
:102F60001FFA81FE1FFA82FCE6457FD0C3699BB23F
:102F700043EA02434FF4616C8149824AA1FB03E1B9
:102F8000C90A0CFB113CA2FB0CE25209C2EB021E67
:102F9000ACEB8E0CDFF8F8E16270734584F802C088
:102FA00068D9794AA2FB01284FEA181808EB4802B1
:102FB000A1EBC2012170016A426A1FFA82F949EA53
:102FC0000149B9F1FF3F47D04B4545D26F4A3846DA
:102FD00002FB08FAA3EB0A01A9EB030BFFF78AFF38
:102FE000002840D1BBF1FF3F72D03846A9EB0A015F
:102FF000FFF794FF002836D100234FF0640E4FF402
:10300000C87CF87B797BBA7B012979D0032977D0FA
:10301000052975D0072973D0082971D00A296FD0E6
:103020000C2972D004295BD0062959D0092957D020
:103030000B2955D0022956D119461FFA80F900F004
:10304000030B1B2A03F1010A6DD8D04502F10102DE
:1030500071D953465146F4E74C49384601FB1831C3
:10306000FFF748FFA0B30120BDE8F88F9BB243EA09
:1030700001437FE7217046B32078092809D900234E
:103080000A38C0B2092803F10103F9D840EA031055
:10309000C0B262782070092A09D900230A3AD2B254
:1030A000092A03F10103F9D842EA0312D2B2A37844
:1030B0006270092B08D90A3BDBB2092B05F1010527
:1030C000F9D843EA0513DBB2A3700020BDE8F88FFE
:1030D0004FF0FF313846FFF721FF00288CD0C2E7C0
:1030E0001D2A0FD80132013398458DD8C9B2D2B20A
:1030F000C3B2FB737973BA73FFF78AFE3873BAE70A
:103100001E2AEFD901220131EDE71E2AEAD9013347
:10311000984500F1010002D902220121E3E70122D2
:10312000C3B21146E5E71C2A03F1010A07D01D2AA4
:1031300018D0D0458DD80221D2B2C3B2D9E7BBF1A5
:10314000000F0FD1B9FBFEF20EFB129292B22AB918
:10315000B9FBFCF20CFB129292B21AB901339845FA
:103160000AD919464B1C984502D902220321BAE715
:1031700001220321C3B2BCE71D220221C3B2B8E77A
:10318000C5B3A29189888888ABAAAAAA80510100F8
:103190007F510100026838B55368044623F00803E4
:1031A0005360FDF753F8054605E0FDF74FF8401B67
:1031B000B0F57A7F05D823685B681B07F5D500203A
:1031C00038BD032038BD00BF704700BF00284CD079
:1031D00038B5437C044603F0FF02002B39D00223AC
:1031E00020466374FFF7D6FF18B1042363740120EF
:1031F00038BD2046FFF74CFE0028F6D12268A068B3
:10320000516821F00701516020B119490B6B23F07F
:1032100001030B631649CB6A23F460730343CB624B
:1032200061684B1C19D090688DB220F00F0040EA05
:1032300011419160D36820461B0C1B042B43D360C3
:10324000FFF73EFE0028D0D101236373E38163744E
:1032500038BD027403F084FDC1E70120FFF760FD73
:103260000028C2D02268411EDDE70120704700BF60
:10327000006C0040704700BF70B508B30223437470
:103280000446FFF705FE054630B10422002301265F
:1032900062742374304670BD4FF4004223682046A8
:1032A000DD619D61DA609D601D605D60FFF708FE75
:1032B000064640B10423012625746374304670BD70
:1032C0000126304670BD2046FFF764FF2268204685
:1032D000536823F00803536003F062FD667426749C
:1032E000304670BD70B5002861D000295FD0037CE6
:1032F0000446012B6CD00120022320746374002A41
:103300003CD04FF4616648780B78020902EB8205E5
:1033100000F00F0202EB45021D09D2B203F00F03C9
:1033200005EB8505887803EB4505C2EB0212920098
:10333000EDB206FB0525010901EB810300F00F0149
:1033400001EB4301C9B20D4429462046FFF7D2FDE7
:10335000064628BB23685A6822F005025A601A6A9A
:10336000596A89B241EA02414B1C01D08D4221D8F1
:103370000122002362742374304670BD4FF46162F1
:103380004B780D78C3EB03139B0002FB053589785E
:1033900020460D442946FFF7ADFD06460028D9D04A
:1033A00004220023012662742374304670BD012676
:1033B000304670BD01F5A831204601F5C071FFF718
:1033C000ADFD0028D4D00423267463740126D3E70E
:1033D0000226D1E708B101B1B4E50120704700BF72
:1033E000002876D070B50D46002974D0037C0446C1
:1033F000012B72D00121022301744374002A35D0BD
:10340000EB78180900EB800203F00F0000EB42009C
:10341000C0B2E0736B78190901EB810203F00F0170
:1034200001EB4201C9B26173AB781A0902EB820663
:1034300003F00F0202EB4602D2B2A273FFF7E8FCE0
:103440002073287021688D69CA698869AEB283B219
:103450009E4212D0CB69254A9BB243EA0043934275
:1034600011D8012300206374207470BDE878E073E4
:1034700069786173AA78A273E0E793B21B4A43EAC2
:1034800005439342EDD91A4DA2F60F62A5FB031531
:103490002D0C02FB153520462946FFF72BFD06466D
:1034A000E8B923681A6A596A89B241EA02414B1C99
:1034B000D7D08D42D5D901F5A831204601F5C0718C
:1034C000FFF72CFD0028CCD0042326746374012060
:1034D00070BD01207047012070BD022070BD042224
:1034E000002362742374012070BD00BF8F5F010050
:1034F00007452EC200232DE9F04182B0ADF804301B
:103500008DF8063000283FD00E4600293CD090466A
:1035100001A91A460746FFF715FD002834D13B7B69
:103520003370FD7BF5707C7B7470BB7BB370B8F13E
:10353000000F2AD0092D09D902460A3DEDB2092D06
:1035400002F10102F9D845EA0215EDB2092CF57035
:1035500009D900220A3CE4B2092C02F10102F9D88F
:1035600044EA0214E4B2092B747009D900220A3B20
:10357000DBB2092B02F10102F9D843EA0213DBB2F4
:10358000B37002B0BDE8F081012002B0BDE8F08167
:103590000023F0B583B0ADF804308DF80630002874
:1035A00051D00D4600294ED01646027C0446012A11
:1035B0005BD04FF0010C02271A4601A980F810C019
:1035C0004774FFF7BFFC00283DD14FF461679DF8B9
:1035D00005309DF80400C3EB03139B0007FB003389
:1035E0009DF8060018448EB369782B780A0902EB1F
:1035F000820601F00F0202EB46021909D2B203F073
:103600000F0301EB8101AD7803EB4101C2EB021224
:103610009200C9B22B0907FB012103EB830305F0DC
:103620000F0505EB4305EDB2294481423CBF01F58E
:10363000A83101F5C0712046FFF770FC80B104226B
:10364000002362742374012003B0F0BD6B782978E5
:10365000C3EB03139B0007FB0131AB781944E4E78C
:1036600001232074637403B0F0BD022003B0F0BDE9
:103670000023F0B583B0ADF804308DF80630002893
:1036800051D00D4600294ED01646027C0446012A30
:103690006CD04FF0010C02271A4601A980F810C027
:1036A0004774FFF74FFC00283DD14FF461679DF848
:1036B00005309DF80400C3EB03139B0007FB0033A8
:1036C0009DF8060018448EB369782B780A0902EB3E
:1036D000820601F00F0202EB46021909D2B203F092
:1036E0000F0301EB8101AD7803EB4101C2EB021244
:1036F0009200C9B22B0907FB012103EB830305F0FC
:103700000F0505EB4305EDB2294481423CBF01F5AD
:10371000A83101F5C0712046FFF700FC80B10422FA
:10372000002362742374012003B0F0BD6B78297804
:10373000C3EB03139B0007FB0131AB781944E4E7AB
:103740006FF00201012522680A4B5160116841F0B7
:10375000020111601A6842F400321A609A6842F459
:1037600000329A602074657403B0F0BD022003B08B
:10377000F0BD00BF00040140002856D0002954D0FD
:103780004FF4616C0268F0B4156A546A2848A4B218
:1037900044EA0544A0FB0450C00A0CFB104C254A27
:1037A000254EA2FB0C42A6FB004657093609C7EB83
:1037B000071706EB4606ACEB8707A0EBC606C2F37D
:1037C0004712FDB2F4B24A708D700C7053B3092EDB
:1037D00009D900230A3CE4B2092C03F10103F9D80A
:1037E00044EA0314E4B2BCF5167F0C7009D300233D
:1037F0000A3AD2B2092A03F10103F9D842EA0312C4
:10380000D2B2092F4A7009D900230A3DEDB2092D21
:1038100003F10103F9D845EA0315EDB200208D70DC
:10382000F0BC70471846F0BC70470120704700BFDD
:10383000C5B3A29189888888ABAAAAAA68B370B5D3
:10384000037C0446012B26D002230126026806745D
:103850004374136823F002031360FFF719FB054656
:1038600028B10422002362742374304670BD6FF0C7
:1038700002004FF6FF7123680B4A586019625962C3
:103880001368204623F400331360FFF719FB30B9A7
:103890006674207470BD022070BD0120704704233F
:1038A00025746374304670BD00040140704700BF4A
:1038B000036810B51A680446920702D55B689B0737
:1038C00006D44FF400310123054A5161637410BDE1
:1038D000FFF7ECFF6FF0020223685A60F1E700BFC8
:1038E0000004014070B505460C46FCF7AFFCBDB1C5
:1038F00006462A6801E0611C09D153689B07FAD586
:103900006FF00201012351606B74002070BD24B17F
:10391000FCF79CFC801BA042EBD90320687470BDAF
:10392000012070BD407C704700B133E40120704736
:10393000034A136823F07F030B430343136070476C
:1039400000000140024A136843F08003136070478F
:1039500000000140024A136823F08003136070479F
:10396000000001402DE9F04F002685B03346DFF816
:10397000ECC1754FDFF8E881DFF8E8E1009003E083
:103980000133102B00F0908001220C689A4032EA3B
:10399000040002EA0405F3D14C68122C00F29C806A
:1039A000122C0CD8DFE804F0A196930A0B0B0B0B3A
:1039B0000B0B0B0B0B0B0B0B0B9083000026FF2D3F
:1039C0007AD8DDF800904FEA830A0F24D9F8002056
:1039D00004FA0AFB22EA0B0206FA0AFA42EA0A028F
:1039E000C9F80020D1F8049019F0805FC8D0DCF845
:1039F00018A023F003024AF0010ACCF818A0DCF862
:103A000018A002F180420AF0010ACDF80CA002F5DC
:103A1000803203F0030ADDF80CB04FEA8A0AD2F8CC
:103A200008B004FA0AF42BEA04000190009C47480D
:103A3000844215D000F5806084426BD04448009CDD
:103A4000844278D04348009C84420CBF4FF0030B63
:103A50004FF0040B01980BFA0AFA40EA0A000190B1
:103A6000019819F4803F90603A6803F1010314BF94
:103A70002A43AA433A607A6819F4003F14BF2A43E4
:103A8000AA437A60BA6819F4801F14BF2A43AA4374
:103A9000BA60FA6819F4001F14BF154322EA05053D
:103AA000102BFD607FF470AF05B0BDE8F08FCE68DD
:103AB000FF2D06F10C0684D9009A4FEA830AAAF179
:103AC000200A02F1040980E7CE68043677E7CE6861
:103AD000083674E7CE6872E7444506D009D97445C4
:103AE00003D01D4884427FF46AAF8C68DCB9042699
:103AF00065E7DFF874904C45F7D009F570294C451F
:103B0000F3D0A9F580194C457FF459AF8C68002C8F
:103B1000EDD008E04FF0010B01980BFA0AFA40EAE9
:103B20000A0001909CE70098012C4FF008060CBF9A
:103B30000261426143E74FF0020B01980BFA0AFA67
:103B400040EA0A0001908BE70004014000080140B0
:103B5000001001400014014000003210001002402B
:103B600000002210000031100000121000296CD05B
:103B70002DE9F04F00224FF0010C4FF00F084FF0ED
:103B80000409DFF8D4A0314FDFF8D0B083B046E0AD
:103B9000054696002C6808FA06FE24EA0E0409FA87
:103BA00006F634432C60C46822F0030524EA0304BB
:103BB00005F18045C46005F5803502F00304D5F8B1
:103BC00008E0A40008FA04F650456FEA03030196E2
:103BD00006EA0E0E2DD0584530D01D4EB04230D0E2
:103BE0001C4EB0420ABF032609FA04F406FA04F494
:103BF000A64510D1AC68019E24EA0606AE603C687A
:103C00001C403C607C681C407C60BC681C40BC6004
:103C1000FC682340FB60013231FA02F30BD00CFA4E
:103C200002F30B40F7D0FF2BB2D99600203E051DC2
:103C3000B0E70024DCE703B0BDE8F08F0CFA04F431
:103C4000D6E7022606FA04F4D2E7704700040140E2
:103C5000001001400014014000080140000C014028
:103C60008368194214BF01200020704702B909047B
:103C700001617047C3685940C16070474FF4803399
:103C800082B00193019B0B430193019B836181618E
:103C9000019B836183690193806980F48030C0F364
:103CA000004002B0704700BF704700BF044A51692E
:103CB000014200D1704708B55061FFF7F5FF08BD1C
:103CC0000004014060B30346F0B4D0E901264FF48C
:103CD000807500243243DE680068324311491E6952
:103CE000114F014432435E69A7FB017132439E6963
:103CF000DF69324306680909890026F47F563A4392
:103D000026F03006196409493243D96302601D84E4
:103D10002046C3E90A44C3E90C449C63F0BC7047E5
:103D200001207047F8FFFDBFCDCCCCCC0000024095
:103D3000E8B130B40124002102460E4B00680E4D5C
:103D40000344A5FB035305681B0925F00105056025
:103D50009B000A4D9C40016041608160C160C2E9E6
:103D60000F536C601184084630BC9163704701208A
:103D7000704700BFF8FFFDBFCDCCCCCC00000240A7
:103D8000F0B4044690F82000012829D0012594F8C9
:103D9000210084F82050A84205D0002384F8203068
:103DA0000220F0BC70470227002684F821702568A5
:103DB000276CA6632E68B840E76B646826F001069E
:103DC000102C2E6078606B600BBFAA60A960E96060
:103DD000EA602B68002043F001032B60F0BC7047C1
:103DE0000220F0BC704700BFF0B4044690F82000F9
:103DF000012838D0012594F8210084F82050A842E9
:103E000005D0002384F820300220F0BC7047022740
:103E10000026256884F82170A663276C2E68B840B8
:103E200026F00106E76B2E60666878606B60E36AD7
:103E3000102E0BBFAA60A960E960EA6053B12B683D
:103E400043F00E032B602B68002043F001032B602E
:103E5000F0BC70472B6823F004032B602B6843F001
:103E60000A032B60EFE70220F0BC704703460121F4
:103E700030B44FF480740268056C1068A94020F0DB
:103E80000E0010601068DD6B20F0010010606960AA
:103E90001C84002030BC704790F821200346022A81
:103EA00003D0042201209A637047026810B511689C
:103EB0001B4821F00E0111601168824221F00101BE
:103EC000116021D017498A421AD014318A421DD07C
:103ED00014318A421DD014318A421DD014318A42D5
:103EE0000CBF4FF480124FF080724FF480700E4C74
:103EF000596B6260188429B118468847002010BDAC
:103F00001022F2E7084610BD0122EEE74FF480725E
:103F1000EBE74FF48052E8E74FF48032E5E700BF6B
:103F2000080002401C000240000002402DE9F04F52
:103F300090F821800746B8F1020F83B008D0042220
:103F40000023826380F82030012003B0BDE8F08FA9
:103F5000036816461A68950659D48A46844A002989
:103F60005CD1934216D01432934200F0DB801432BD
:103F7000934200F0E1801432934200F0C580143285
:103F8000934200F0E280143293420CBF4FF40018C9
:103F90004FF00078FCF75AF9DFF8D491DFF8E4B17C
:103FA000744A754901903B687448754DDFF8D8C173
:103FB00012E05B454AD093424BD08B424CD0AB428F
:103FC0004DD063450CBF4FF4000E4FF0006E14EA65
:103FD0000E0F0DD1741C64D1046814EA080F41D18E
:103FE0004B450468E5D14FF0080E14EA0E0FF1D0EE
:103FF0000120D7E90F134FF4807200FA03F34B60EE
:10400000BB6B3A840343BB6303B0BDE8F08F4FF44E
:1040100080730120BB6303B0BDE8F08F93427BD077
:10402000143293427BD01432934200F082801432D7
:1040300093426ED01432934200F084801432934243
:104040000CBF4FF480084FF08068A3E74FF0800E5C
:10405000BDE74FF4006EBAE74FF4004EB7E74FF4F8
:10406000002EB4E7424ABAF1000F2DD193425ED040
:104070001432934246D01432934260D014329342A9
:1040800069D0143293426CD0143293420CBF4FF477
:1040900000134FF00073012238494B6087F821204C
:1040A00029E046B1FCF7D2F8019B324AC01AB0426F
:1040B00031497FF678AF4FF48072BB6B012043F03B
:1040C00020033A84BB6340E793422ED014329342DC
:1040D0001DD0143293423BD0143293423ED014325E
:1040E000934241D0143293420CBF4FF480034FF0FF
:1040F0008063224A53600023184687F8203003B0BB
:10410000BDE8F08F2023C6E74FF4005842E7402374
:10411000EFE74FF480483DE74FF004083AE74FF0EF
:10412000400837E74FF0200834E70423E1E7022393
:10413000B1E74FF480682DE74FF400782AE74FF499
:104140000073A8E74FF4802824E74FF4003821E7F4
:104150004FF48063CDE74FF400539CE74FF4804366
:10416000C7E74FF4003396E74FF48023C1E700BF61
:1041700008000240300002404400024000000240BB
:10418000580002401C0002406C000240042270B43F
:10419000D0E90F61346803688A4022421D681FD04D
:1041A0006A071DD51A68910603D41A6822F0040222
:1041B0001A603E4A93425AD0143293425FD014326E
:1041C000934266D01432934269D0143293425BD04A
:1041D000143293420CBF4FF480034FF0806347E0EA
:1041E00002228A40224222D0AA0720D51A689106CC
:1041F00006D401211A6822F00A021A6080F8211000
:104200002A4A934229D01432934240D01432934226
:1042100042D01432934234D01432934242D01432FA
:1042200093420CBF4FF400134FF0007316E00822C6
:104230008A40224219D02A0717D501244FF48075ED
:104240001A6804FA01F122F00E021A60036B716021
:10425000846305844BB170BC184702230021144CC1
:10426000826A636080F820103AB970BC70470423FA
:104270000F49C26A4B60002AF7D070BC1047402338
:10428000F6E74FF40053E9E74FF48023F0E72023EB
:10429000E4E74FF48063EBE74FF40073DEE74FF49D
:1042A0008043E5E74FF40033D8E700BF0800024041
:1042B00000000240034690F8200001281AD093F82D
:1042C0002100012804D00120002283F8202070471B
:1042D0000329F9D8DFE801F005080B0200205A6332
:1042E000F2E708469A62EFE70020DA62ECE7002086
:1042F0001A63E9E70220704790F820200346012A5C
:1043000012D0012290F8210083F82020904204D09E
:104310001046002283F8202070470429F9D8DFE8EE
:1043200001F014110E0B0500022070470020C3E9B4
:104330000A00C3E90C00ECE700205863E9E700201D
:104340001863E6E70020D862E3E7002208469A6295
:10435000DFE700BF90F82100704700BF806B704717
:1043600038B505464CF25030FEF7CCFB00B138BDF5
:10437000124B134CD86123694CF2503043F02003A8
:104380002361236943F040032361FEF7BBFB2369EC
:1043900023F0200323610028E9D122690949ABB247
:1043A00042F0100222614CF250300B80FEF7AAFB63
:1043B000236923F01003236138BD00BFF8100020EB
:1043C0000020024000F8FF1F2DE9F8432D4E337EF8
:1043D000012B54D00123337603688146022B31D060
:1043E0004CF250308846FEF78DFB80BB4FF0FF3318
:1043F000C8F80030D9E9025305EB83239D4226D249
:104400000746214C07E005F58065D9E9023203EB48
:104410008223AB421CD9F76123694CF2503043F040
:10442000020323616561236943F040032361FEF7C2
:1044300069FB236923F0020323610028E3D0C8F855
:10444000005005E04CF25030FEF75CFB20B101203B
:1044500000233376BDE8F8830B4CF06123694CF2FE
:10446000503043F004032361236943F04003236188
:10447000FEF748FB236923F004032361E8E70220E9
:10448000BDE8F883F8100020002002401A4B1A7E85
:10449000012A2FD030B401241A7801461C7602F08C
:1044A000FF00C2B9154A156945F4A05515610D689C
:1044B000022D13D0CD6889681C705D609960D86149
:1044C000136930BC43F0020313615161136943F077
:1044D000400313617047204630BC70471D70D8619F
:1044E000136930BC43F004031361136943F04003C4
:1044F0001361704702207047F8100020002002402E
:1045000038B5134C4CF25030E36913F0020F14BF6E
:104510000025A525FEF7F6FA00B138BD03460D4A81
:104520004CF25030D361236943F0200323612369A7
:1045300043F040032361FEF7E5FA236923F02003EB
:1045400023610028E9D12846BDE8384008E700BFCC
:1045500000200240F81000202DE9F843924E337EEF
:10456000012B00F0D9800546012030762B68DC074E
:104570000CD4044699075DD45A0764D41B0700F194
:104580008680002320463376BDE8F8836B68874F2A
:104590008342D7F820804CF25030D5F8089000F0D4
:1045A0009480FEF7AFFA04460028EAD1F061FFF7E5
:1045B000A7FF04460028E4D13B6949EA08085FFAEE
:1045C00088F243F01003FF2A3B6109D078494CF28E
:1045D00050300B899BB21A430A81FEF793FAF0B967
:1045E000C8F30723FF2B09D071494CF250304A8998
:1045F00092B213434B81FEF785FA80B9C8F30743A3
:10460000FF2B00F08D806A494CF250308A8992B2BB
:1046100013438B81FEF776FA002800F08180044670
:10462000624A136923F010031361002CA9D12B688F
:104630009907A1D5287CFFF793FE04460028A0D156
:104640002B685A079AD54CF2503095F81180FEF736
:1046500059FA0446002894D1544FF0613B69544AFA
:1046600043F0100348F088083B614CF25030A2F848
:104670000280FEF747FA3B69044623F010033B61D2
:1046800000287FF47EAF2B681B077FF57AAF4CF2D2
:104690005030D5F814802F7EFEF734FA04460028F7
:1046A0007FF46FAF414DF0612B69BFB243F010034F
:1046B0002B614CF25030A8F80070FEF723FA2B69FA
:1046C000044623F010032B615BE7FEF71BFA044658
:1046D00000287FF456AFF061FFF712FF0446002870
:1046E0007FF44FAF3B6928EA09085FFA88F243F08C
:1046F0001003FF2A3B612BD02D4B4CF2503019890F
:104700000A401A81FEF7FEF910B3284A04461369DD
:1047100023F01003136188E702242046BDE8F883E4
:104720004FEA1868B8F1FF0F0BD0214A4CF2503015
:10473000D3899BB243EA0803D381FEF7E3F9044629
:104740006EE71A4A136923F0100313612B6811E70F
:10475000C8F30723FF2B09D0154A4CF2503051897A
:104760000B405381FEF7CEF90028CED1C8F30743A2
:10477000FF2B09D00E4A4CF2503091890B409381A7
:10478000FEF7C0F90028C0D14FEA1868B8F1FF0F52
:10479000D7D0074B4CF25030DA8908EA0208A3F868
:1047A0000E80FEF7AFF9B0E7F810002000200240BD
:1047B00000F8FF1F0722084B02601A6A8260DA695C
:1047C00012F0020F14BF0022A5220274DB69C3F3AA
:1047D00082034374704700BF00200240044B98429C
:1047E000044BD8690CBFC0F38720C0F387407047E3
:1047F00004F8FF1F002002400021064A064BD16149
:104800001A6942F002021A6158611A6942F04002C4
:104810001A617047F810002000200240026AF0B4CC
:1048200022F001028D680262036A476823F00203E6
:1048300082692B430D4D0C6822F07302A84242EAB4
:10484000040206D0496847608261F0BC416303629C
:104850007047CE6823F0080327F440773343D1E94B
:1048600005452C4323F004032743EBE7002C0140CC
:10487000026AF0B422F480728D680262036A4768AB
:1048800023F40073C26943EA05230F4D0C6822F03C
:104890007302A84242EA040206D049684760C26136
:1048A000F0BCC16303627047CE6823F4006327F451
:1048B000405743EA0623D1E905452C4323F480639E
:1048C00047EA0417E9E700BF002C0140026A70B410
:1048D00022F480528E680262036A456823F4005312
:1048E000C26943EA06330A4E0C6822F4E642B0423B
:1048F00042EA042206D049684560C26170BC016486
:10490000036270474C6925F4804545EA8415F2E757
:10491000002C014002684868936870B423F070036B
:104920000C68034323F0070323436028936026D0D9
:1049300016D8402837D0502810D1146A156A8868D4
:1049400025F001050E691562936924F00A0123F030
:10495000F003014343EA06139361116270BC704790
:104960007028FBD1D1E9024308699168234343EAE7
:10497000002321F47F410B43936070BC7047106AA1
:104980008C6820F010000D6910629169136A21F49F
:10499000704123F0A00341EA053143EA0413916119
:1049A00070BC13627047146A106A0D6920F0010030
:1049B0001062936923F0F00343EA051393611462D4
:1049C00070BC7047704700BF704700BF022141F2C2
:1049D0001112036810B580F83D10196A044611429F
:1049E00008D140F24442196A114203D11A6822F0F8
:1049F00001021A602046FFF7E7FF002084F83D001F
:104A000084F83C0010BD00BF022210B4012403460C
:104A1000016880F83D200A68002022430A6083F87C
:104A20003D4010BC704700BF0346022041F2111107
:104A30001A6883F83D00106A084208D140F24441E8
:104A4000106A084203D1116821F0010111600122AE
:104A5000002083F83D20704703680020DA6842F0A8
:104A60000102DA601A6842F001021A60704700BF62
:104A700041F211110368DA6822F00102DA601A6A61
:104A80000A4208D140F24442196A114203D11A681D
:104A900022F001021A600020704700BF38B590F87C
:104AA0003D500446022DE8B21CD0134694F83D2038
:104AB000012AD0B203D1B1B1022284F83D20206A8C
:104AC0000A4A0B4D8262226805632C32FFF78CF98B
:104AD00000202368DA6842F48072DA601A6842F0D3
:104AE00001021A6038BD002BE6D038BD495D0008D0
:104AF000915F0008034641F211101A68D16821F451
:104B00008071D160116A014208D140F24441106ABB
:104B1000084203D1116821F0010111600122002037
:104B200083F83D20704700BF704700BF704700BF4B
:104B3000022141F21112036810B580F83D10196A84
:104B40000446114208D140F24442196A114203D18D
:104B50001A6822F001021A602046FFF7E7FF0020E2
:104B600084F83D0084F83C0010BD00BF01220368BA
:104B700002FA01F11A6A0A4822EA01021A621A6A62
:104B8000834241EA0201196205D01A68002042F00E
:104B900001021A6070475A6C42F400425A64F4E70A
:104BA000002C0140012203688A40196A134821EA57
:104BB000020119621A6A83421A620FD041F211127D
:104BC000196A114208D140F24442196A114203D1D4
:104BD0001A6822F001021A600020704741F2111297
:104BE000196A1142EAD140F24442196A1142E5D1F0
:104BF0005A6C22F400425A64E0E700BF002C0140E6
:104C00000C2908D8DFE801F02C070707320707074F
:104C100026070707200003680122186A02FA01F13B
:104C200020EA01001862186A134A0143934219628C
:104C300005D01A68002042F001021A6070475A6CD1
:104C400042F400425A64F4E70368DA6842F0100262
:104C5000DA60E1E70368DA6842F00802DA60DBE76D
:104C60000368DA6842F00202DA60D5E70368DA68BE
:104C700042F00402DA60CFE7002C01400C2908D88A
:104C8000DFE801F036070707300707072A0707079D
:104C90002400036801201A6A00FA01F122EA0101E6
:104CA00019621E4A196A9342196227D041F2111201
:104CB000196A114208D140F24442196A114203D1E3
:104CC0001A6822F001021A60002070470368DA684F
:104CD00022F01002DA60DDE70368DA6822F00802E9
:104CE000DA60D7E70368DA6822F00402DA60D1E715
:104CF0000368DA6822F00202DA60CBE741F21112AF
:104D0000196A1142D2D140F24442196A1142CDD1FE
:104D10005A6C22F400425A64C8E700BF002C0140DC
:104D200070B590F83D600446022EF0B224D094F89D
:104D30003D600D46012E1146F0B21ED00C2D08D854
:104D4000DFE805F0210707074E07070730070707C9
:104D50003F0023680122186A02FA05F120EA0100E7
:104D60001862186A2A4A01439342196247D0002008
:104D70001A6842F001021A6070BD002A44D0022273
:104D800084F83D20DAE7606A224A234E8262226874
:104D900006633432FFF728F82368DA6842F40072B9
:104DA000DA60D7E7E06A1B4A1B4E8262226806631C
:104DB0003C32FFF719F82368DA6842F40062DA60DF
:104DC000C8E7206B134A144E8262226806634032A1
:104DD000FFF70AF82368DA6842F48052DA60B9E72C
:104DE000A06A0C4A0C4E8262226806633832FEF7D3
:104DF000FBFF2368DA6842F48062DA60AAE75A6C43
:104E000042F400425A64B2E7002BB8D070BD00BF34
:104E1000002C0140C55D0008915F0008024610B4F7
:104E20000C2908D8DFE801F03A070707340707071D
:104E30002E070707280003680124186A04FA01F105
:104E400020EA010119622049186A8B4218622BD0AE
:104E500041F21111186A084208D140F24441186A1F
:104E6000084203D1196821F001011960012382F879
:104E70003D30002010BC70470368D86820F4805093
:104E8000D860D9E70368D86820F40060D860D3E719
:104E90000368D86820F48060D860CDE70368D868DC
:104EA00020F40070D860C7E741F21111186A084277
:104EB000CED140F24441186A0842C9D1596C21F45C
:104EC00000415964C4E700BF002C0140704700BF97
:104ED000704700BF022141F21112036810B580F83B
:104EE0003D10196A0446114208D140F24442196A41
:104EF000114203D11A6822F001021A602046FFF71E
:104F0000E7FF002084F83D0084F83C0010BD00BF9E
:104F1000FFF72CBE0246012013688840196A10B4BE
:104F200021EA00011962144C196AA342196213D0D4
:104F300041F21111186A084208D140F24441186A3E
:104F4000084203D1196821F001011960012382F898
:104F50003D30002010BC704741F21111186A084220
:104F6000E6D140F24441186A0842E1D1596C21F47B
:104F700000415964DCE700BF002C0140FFF740BE50
:104F8000FFF77CBEFFF7CCBEFFF748BF704700BFFE
:104F9000704700BF022141F21112036810B580F87A
:104FA0003D10196A0446114208D140F24442196A80
:104FB000114203D11A6822F001021A602046FFF75D
:104FC000E7FF002084F83D0084F83C0010BD00BFDE
:104FD0000122036802FA01F11A6A002022EA0102A2
:104FE0001A621A6A114319621A6842F001021A60C1
:104FF000704700BF012210B441F2111403688A40C7
:10500000196A21EA020119621A6A1A621A6A2242AC
:1050100008D140F24442196A114203D11A6822F0C1
:1050200001021A60002010BC704700BF0C2908D88C
:10503000DFE801F01E070707240707072A0707070D
:10504000180003680122186A02FA01F120EA01003F
:1050500018621A6A0020114319621A6842F00102AC
:105060001A6070470368DA6842F01002DA60E9E714
:105070000368DA6842F00202DA60E3E70368DA689C
:1050800042F00402DA60DDE70368DA6842F0080201
:10509000DA60D7E710B40C2908D8DFE801F034074C
:1050A00007072E07070728070707220003680120C4
:1050B00041F211141A6A00FA01F122EA010119629F
:1050C0001A6A1A621A6A224208D140F24442196AE4
:1050D000114203D11A6822F001021A60002010BCAC
:1050E00070470368DA6822F01002DA60DFE70368CD
:1050F000DA6822F00802DA60D9E70368DA6822F099
:105100000402DA60D3E70368DA6822F00202DA60A8
:10511000CDE700BF70B590F83D600446022EF0B2B6
:1051200020D00D4694F83D100129C8B21BD00C2D9B
:1051300008D8DFE805F01E0707072D0707073C071B
:1051400007074B002368012200201C6A02FA05F1C0
:1051500024EA01041C621A6A114319621A6842F0B7
:1051600001021A6070BD002A3FD0022184F83D1070
:10517000DDE7606A1E491F4E816221680663343193
:10518000FEF732FE2368DA6842F40072DA60DAE78A
:10519000A06A1749174E8162216806633831FEF70D
:1051A00023FE2368DA6842F48062DA60CBE7E06AC3
:1051B0000F49104E8162216806633C31FEF714FEF0
:1051C0002368DA6842F40062DA60BCE7206B0849C1
:1051D000084E8162216806634031FEF705FE2368B0
:1051E000DA6842F48052DA60ADE7002BBDD070BDC2
:1051F000615D0008915F000870B406460C2908D86C
:10520000DFE801F037070707310707072B07070714
:1052100025000368012441F211151A6A04FA01F10C
:1052200022EA010119621A6A1A621A6A2A4208D12C
:1052300040F24442196A114203D11A6822F0010275
:105240001A60012386F83D30002070BC7047036867
:10525000DA6822F48052DA60DCE70368DA6822F464
:105260000062DA60D6E70368DA6822F48062DA6006
:10527000D0E70368DA6822F40072DA60CAE700BF98
:10528000704700BF704700BF022141F2111203684E
:1052900010B580F83D10196A0446114208D140F259
:1052A0004442196A114203D11A6822F001021A60BD
:1052B0002046FFF7E7FF002084F83D0084F83C001B
:1052C00010BD00BF03680D491A6A8B4222F001022B
:1052D0001A621A6A42F001021A621A6A22F0100275
:1052E0001A621A6A42F010021A6201D00020704756
:1052F0005A6C002042F400425A647047002C01406E
:10530000036817491A6A8B4222F001021A621A6A6C
:105310001A621A6A22F010021A621A6A1A620FD00E
:1053200041F21112196A114208D140F24442196A3D
:10533000114203D11A6822F001021A60002070475E
:1053400041F21112196A1142EAD140F24442196A3B
:105350001142E5D15A6C22F400425A64E0E700BFE2
:10536000002C014003681149DA688B4242F00202C6
:10537000DA60DA6842F00402DA601A6A22F00102A6
:105380001A621A6A42F001021A621A6A22F01002C4
:105390001A621A6A42F010021A6201D000207047A5
:1053A0005A6C002042F400425A647047002C0140BD
:1053B00003681B49DA688B4222F00202DA60DA687D
:1053C00022F00402DA601A6A22F001021A621A6AF2
:1053D0001A621A6A22F010021A621A6A1A620FD04E
:1053E00041F21112196A114208D140F24442196A7D
:1053F000114203D11A6822F001021A60002070479E
:1054000041F21112196A1142EAD140F24442196A7A
:105410001142E5D15A6C22F400425A64E0E700BF21
:10542000002C0140704700BF704700BF022141F2CD
:105430001112036810B580F83D10196A0446114234
:1054400008D140F24442196A114203D11A6822F08D
:1054500001021A602046FFF7E7FF002084F83D00B4
:1054600084F83C0010BD00BFC1B1042920D00368FE
:105470001A6A22F001021A621A6A42F001021A62E2
:105480001A6A22F010021A621A6A42F010021A62B4
:105490001A68002042F001021A60704703681A6A15
:1054A00022F001021A621A6A42F001021A62EFE760
:1054B0000368E5E7F1B1042924D003681A6A22F0F1
:1054C00001021A621A6A1A621A6A22F010021A6239
:1054D0001A6A1A6241F21112196A114208D140F295
:1054E0004442196A114203D11A6822F001021A607B
:1054F0000020704703681A6A22F001021A621A6AD1
:105500001A62E7E70368DFE701B304292CD00368D8
:105510001A6A22F001021A621A6A42F001021A6241
:105520001A6A22F010021A621A6A42F010021A6213
:10553000DA6842F00202DA60DA6842F00402DA6005
:105540001A68002042F001021A60704703681A6A64
:1055500022F001021A621A6A42F001021A62DA6843
:1055600042F00202DA60EBE703681A6A22F01002E6
:105570001A621A6A42F010021A62DA6842F00402F1
:10558000DA60DDE702460368E1B9196A21F001013A
:105590001962196A1962D96821F00201D96041F2D1
:1055A0001111186A084208D140F24441186A0842B1
:1055B00003D1196821F0010119600123002082F84C
:1055C0003D3070470429196A13D021F00101196296
:1055D000196A1962196A21F010011962196A1962AF
:1055E000D96821F00201D960D96821F00401D9609D
:1055F000D5E721F010011962196A1962D96821F002
:105600000401D960CBE700BFF0B590F83D6083B0EE
:10561000022E04461F46F0B2BDF820300BD00D46D6
:1056200094F83D100129C8B207D0042D0ED0182DD2
:1056300047D04DB3002003B0F0BD002A74D0002F36
:1056400072D0022184F83D10042DF0D1A06A3949AE
:10565000394D816221683A4605633831FEF7C4FB53
:1056600000202368DA6842F48062DA601A6842F047
:1056700001021A601A6A22F010021A621A6A42F0D3
:1056800010021A6203B0F0BD606A2A492A4E816294
:10569000216806633431FEF7A7FB28462368DA68E1
:1056A00042F40072DA601A6842F001021A601A6A63
:1056B00022F001021A621A6A42F001021A6203B071
:1056C000F0BD2168606A1B4E1B4D86620563343154
:1056D0000193FEF789FB2168A06A3A46019B866226
:1056E00005633831FEF780FB002023681A6842F01A
:1056F00001021A601A6A22F001021A621A6A42F062
:1057000001021A621A6A22F010021A621A6A42F040
:1057100010021A62DA6842F40072DA60DA6842F45F
:105720008062DA6003B0F0BD002B84D1022184F8DE
:105730003D1089E7615D0008915F0008024603683B
:10574000E1B9196A21F001011962196A1962D9686F
:1057500021F40071D96041F21111186A084208D190
:1057600040F24441186A084203D1196821F001014E
:1057700019600123002082F83D3070470429196A1E
:1057800013D021F001011962196A1962196A21F016
:1057900010011962196A1962D96821F40071D9607F
:1057A000D96821F48061D960D5E721F01001196230
:1057B000196A1962D96821F48061D960CBE700BF0A
:1057C000F8B590F83DC00546BCF1020F069E5FFAA1
:1057D0008CF028D00F46194695F83D301446012B21
:1057E000D8B236D0B4F5006F3AD01DD8B4F5007FEA
:1057F00039D0B4F5806F26D1A86A1F4B2A68DFF82C
:1058000088C08362330AC0F830C04C320133FEF7DF
:10581000EBFA012100202B683E439E64DA681443B2
:10582000DC6085F83D10F8BDB4F5005F1ED0B4F51E
:10583000804F02D1A86B114BE0E7B4F5805FE8D14F
:10584000286B0D4BDAE7B4F5807FE2D1286A0C4B68
:10585000D4E771B10223B4F5006F85F83D30C4D1AF
:10586000E86A054BCAE7686A034BC7E7686B054BF4
:10587000C4E7002EEED0F8BDC55D00087D5F0008CE
:10588000495D000879280008915F0008B1F5006FB4
:1058900038B50C46054628D00FD8B1F5007F28D082
:1058A000B1F5806F13D1806AFEF7E0FA2B68002013
:1058B000D96821EA0404DC6038BDB1F5005F1CD072
:1058C000B1F5804F0AD1806BFEF7D0FAEEE7B1F563
:1058D000807FEBD1006AFEF7C9FAE7E7B1F5805F98
:1058E000E4D1006BFEF7C2FAE0E7C06AFEF7BEFA49
:1058F000DCE7406AFEF7BAFAD8E7406BFEF7B6FA83
:10590000D4E700BFF8B590F83DC00546BCF1020FE2
:10591000069E5FFA8CF028D014461A4695F83D3062
:105920000F46012BD8B236D0B4F5006F3AD01DD84F
:10593000B4F5007F39D0B4F5806F26D1A86A1F4B2B
:105940002968DFF888C08362330AC0F830C04C3160
:105950000133FEF749FA012100202B683E439E6483
:10596000DA681443DC6085F83D10F8BDB4F5005FDB
:105970001ED0B4F5804F02D1A86B114BE0E7B4F50F
:10598000805FE8D1286B0D4BDAE7B4F5807FE2D178
:10599000286A0C4BD4E772B10223B4F5006F85F886
:1059A0003D30C4D1E86A054BCAE7686A034BC7E7D4
:1059B000686B054BC4E7002EEED0F8BD615D0008B2
:1059C0007D5F0008495D000879280008915F0008A4
:1059D000FFF75CBF90F83C20012A0FD030B403469B
:1059E000022501240022006883F83D50416183F8BC
:1059F0003D4083F83C20104630BC70470220704781
:105A000090F83C30012B4BD00223F0B480F83D30AD
:105A10004B6853B3012B1BD00C2A10D8DFE802F0DF
:105A2000070F0F0F300F0F0F380F0F0F28000B68E5
:105A30000268002B36D0936943F080039361002302
:105A4000012280F83C3080F83D20F0BC18467047B9
:105A500006680D69B468D1E902733B4324F47F44BE
:105A600043EA05232343B360D6E70468A360D3E782
:105A70000B68026803B3D36943F40043D361DEE7E4
:105A80000B6802689BB1936943F400439361D6E7C6
:105A90000B680268ABB1D36943F08003D361CEE7F2
:105AA00002207047936923F080039361C7E79369ED
:105AB00023F400439361C2E7D36923F40043D36125
:105AC000BDE7D36923F08003D361B8E790F83C3099
:105AD000012B00F09880F0B402230124026880F8C2
